:1000000005C100000C946F2F0C949A2F0C94C52FEF
:100010000C94F02F0C941B300C9446300C947130DF
:100020000C949C3024C1000022C1000020C10000BB
:100030001EC100001CC100001AC1000018C1000050
:1000400016C1000014C1000012C1000010C1000060
:100050000EC100000CC100000AC100000C94C730A2
:1000600006C100000C949B340C94D13400C10000F4
:10007000FEC00000FCC00000FAC00000F8C0000094
:10008000F6C00000F4C00000F2C00000F0C00000A4
:100090000C9427350C945D35EAC00000E8C00000E0
:1000A000E6C00000E4C00000E2C00000E0C00000C4
:1000B000DEC00000DCC00000DAC00000D8C00000D4
:1000C000D6C00000D4C000000C944E2B0C94B33565
:1000D0000C94E935CCC000000C943F360C94753676
:1000E000C6C0000000000A0B02090C0D0E08070331
:1000F00004010000000000000000000000000000FB
:1001000000000000000000000000000000000000EF
:1001100012111000000000000000000000000000AC
:100120000000000000000000000001021020200874
:100130000810204010204080020102010804020142
:1001400001020408102040808040201008040201B1
:10015000800402018040201008040201080402010A
:100160000102040810204080010204081020408091
:1001700005050505070508080808020202020A0A23
:100180000808040404040101010101010101030341
:10019000030303030303040707070C0C0C0C0C0CEC
:1001A0000C0C0202020206060606060606060B0BE9
:1001B0000B0B0B0B0B0B000020002300260029006B
:1001C0002C002F003200000100000301060109018C
:1001D00000002200250028002B002E0031003400F2
:1001E00002010000050108010B01000021002400AC
:1001F00027002A002D003000330001010000040117
:1002000007010A01FA34863512369E3611241FBEC4
:10021000CFEFD1E2DEBFCDBF00E00CBF13E0A0E026
:10022000B2E0E4ECFEE600E00BBF02C007900D92E6
:10023000A636B107D9F72BE0A6E6B3E001C01D92C0
:10024000A031B207E1F711E0C6E0D1E000E006C05E
:1002500021970109802FFE010E942F37C230D1075C
:1002600080E00807A9F70E94512C0C946037C8CE93
:10027000FC01A781B0858C9191858923A481B581EA
:100280009C9140815181628173812681922359F032
:1002900081110BC04F5F5F4F6F4F7F4F4083518382
:1002A0006283738308958111F5CF4150510961092B
:1002B0007109F4CF87E693E0DBCF82E793E0D8CFF4
:1002C0008DE793E0D5CF88E893E0D2CFFC01A481FD
:1002D000B5818C9196818923A781B0859C914081BD
:1002E0005181628173812185922359F0882359F0CD
:1002F0004F5F5F4F6F4F7F4F4083518362837383A4
:1003000008958823A9F34150510961097109F4CF77
:1003100087E693E0DBCF82E793E0D8CF8DE793E0E9
:10032000D5CF88E893E0D2CF0F931F93CF93DF937D
:10033000D82FC62F8A01A09166038BE0A89FD00119
:100340001124A959BC4F1D921D921D921C92139706
:1003500081E01A968C931A978D2F90E0FC01E65D50
:10036000FE4FE4911696EC931697FC01E059FE4F70
:10037000E491F0E0EE0FFF1FEA54FE4F8591949157
:1003800015969C938E931497862F90E0FC01E65D62
:10039000FE4FE4911996EC931997FC01E059FE4F3A
:1003A000E491F0E0EE0FFF1FEA54FE4F8591949127
:1003B00018969C938E93179760E08D2F0E940833B8
:1003C00060E08C2F0E94083380916603813009F42D
:1003D0003FC0A8F0823009F462C0833009F486C0BF
:1003E0008091660391E0980F90936603F8018083F3
:1003F00090E080E0DF91CF911F910F91089580E010
:10040000D23049F081E0D33031F08EEE8D0F843060
:10041000D8F487E18D1B41E050E06AE571E00E946D
:10042000F52E80E0C23049F081E0C33031F08EEE2D
:100430008C0F843058F487E18C1B41E050E068E871
:1004400071E00E94F52ECCCF8FEFE5CF8FEFF5CF87
:1004500080E0D23049F081E0D33031F08EEE8D0F64
:100460008430C8F487E18D1B41E050E06DE571E018
:100470000E94F52E80E0C23049F081E0C33031F0B7
:100480008EEE8C0F843048F487E18C1B41E050E005
:100490006BE871E0D6CF8FEFE7CF8FEFF7CF80E03B
:1004A000D23049F081E0D33031F08EEE8D0F8430C0
:1004B000C8F487E18D1B41E050E060E671E00E94E6
:1004C000F52E80E0C23049F081E0C33031F08EEE8D
:1004D0008C0F843048F487E18C1B41E050E06EE8DB
:1004E00071E0AFCF8FEFE7CF8FEFF7CF80E0D23063
:1004F00049F081E0D33031F08EEE8D0F8430C8F4B6
:1005000087E18D1B41E050E063E671E00E94F52E2B
:1005100080E0C23049F081E0C33031F08EEE8C0FC4
:10052000843048F487E18C1B41E050E061E971E0E0
:1005300088CF8FEFE7CF8FEFF7CF9BE0899FF00158
:100540001124E959FC4F80819181A281B381FB0183
:1005500080839183A283B38390E080E008959BE041
:10056000899FF0011124E959FC4F108211821282F7
:10057000138290E080E0089590E080E0089561119A
:1005800002C00C9408336130E1F362E0FACF6623D5
:1005900019F061E00C94443360E0FCCFCF93282F36
:1005A0008823E1F0CB01BA01CFEFC20FEC2FF0E0CE
:1005B000ED56FC4F2081213059F490580E94AF2D08
:1005C0009B01AC016C2F70E090E080E0CF91A2C065
:1005D0000E94AA2D8C2FCF910C94CE31CF910895EB
:1005E0000F931F938B019C0183E0369527951795F8
:1005F00007958A95D1F707521C4F462F477021E087
:1006000030E0F90102C0EE0FFF1F4A95E2F7AF019B
:10061000F80120812423CB010196211102C090E032
:1006200080E01F910F9108950F931F938B019C0100
:1006300083E036952795179507958A95D1F76770CA
:1006400081E090E001C0880F6A95EAF7F801E7526F
:10065000FC4F2081452B31F48095822380831F91AC
:100660000F910895822BFACF4F925F926F927F92F3
:100670008F929F92AF92BF92CF92DF92EF92FF92B2
:100680000F931F93CF93DF934B015C0129013A0134
:10069000670161E0882D0E940833E4012196AE01D4
:1006A000C501B401C1DF20E030E0A901C801B601F5
:1006B0000E948D2E18168CF4F401ED56FC4F81E04B
:1006C0008083C801B6010E94AF2D6B01C301B20146
:1006D0000E94AF2DA601C40121D0CE01DF91CF91A0
:1006E0001F910F91FF90EF90DF90CF90BF90AF9050
:1006F0009F908F907F906F905F904F900895882388
:1007000041F08150682F70E090E080E050E040E0E0
:100710008BCF0895862FB9010C94CE319C01FC013A
:10072000EC51FF4FE491E150E231E0F4F0E0882732
:10073000E356FC4F8F4F0C942F37AF03B603B9032A
:10074000D003E503B203FA0306040A0421043604C5
:100750004B0462047704B2038C04A304B80484B588
:10076000806884BD60E0822F0C94443384B580623D
:10077000F8CF809180008C7F826080938000809190
:100780008100807E8061682B609381005093870098
:100790004093860080918000806880938000E2CF43
:1007A000809180008C7F82608093800080918100A6
:1007B000807E8061682B6093810050938700409316
:1007C0008600809180008062E8CF809180008C7FDD
:1007D00082608093800080918100807E8061682BA0
:1007E0006093810050938700409386008091800041
:1007F0008860D3CF8091B00080688093B0008091F2
:10080000B100887F682B6093B100ACCF8091B000BD
:100810008062F3CF809190008C7F82608093900003
:1008200080919100807E8061682B6093910050934D
:10083000970040939600809190008068809390008C
:1008400091CF809190008C7F826080939000809106
:100850009100807E8061682B609391005093970097
:1008600040939600809190008062E8CF8091900044
:100870008C7F82608093900080919100807E806167
:10088000682B60939100509397004093960080915D
:1008900090008860D3CF8091A0008C7F826080938D
:1008A000A0008091A100807E8061682B6093A100F0
:1008B0005093A7004093A6008091A0008068809389
:1008C000A00050CF8091A0008C7F82608093A00018
:1008D0008091A100807E8061682B6093A10050937D
:1008E000A7004093A6008091A0008062E8CF80918D
:1008F000A0008C7F82608093A0008091A100807E08
:100900008061682B6093A1005093A7004093A600DC
:100910008091A0008860D3CF809120018C7F82607D
:100920008093200180912101807E8061682B6093FB
:100930002101509327014093260180912001806876
:10094000809320010FCF809120018C7F8260809363
:10095000200180912101807E8061682B60932101BC
:100960005093270140932601809120018062E8CFB7
:10097000809120018C7F82608093200180912101F1
:10098000807E8061682B6093210150932701409302
:100990002601809120018860D3CF90E080E0089507
:1009A0000F931F93009709F48AC06115710509F42C
:1009B00086C0009194021091950220919602309188
:1009C00097020E3F1F4F2F4F3F4F09F06AC0DB01C8
:1009D0004D915D916D917C9140939402509395025D
:1009E0006093960270939702409194025091950201
:1009F0006091960270919702DC011296ED91FC9144
:100A000080819181A281B38180935804909359048D
:100A1000A0935A04B0935B0484819581A681B78129
:100A20008093540490935504A0935604B0935704B4
:100A300080859185A285B38580935004909351045D
:100A4000A0935204B093530484859585A685B785F9
:100A500080934C0490934D04A0934E04B0934F04A4
:100A6000109248041092490410924A0410924B04C8
:100A70000E94F40E89E19FE09093E3038093E203E8
:100A80009093E5038093E4030E94E30D009731F413
:100A900021E030E030935D0420935C041F910F91BE
:100AA0000895009194021091950220919602309140
:100AB0009702FB01008311832283338395CF8FEF4D
:100AC0009FEFECCF8F929F92AF92BF92CF92DF9227
:100AD000EF92FF921F93CF93DF934B015C01109134
:100AE0005F0482E090E090935D0480935C04811445
:100AF0009104A104B10441F480915F04811104C008
:100B000080915E04C1E08111C0E0C12CD12C76013E
:100B100080915F04811106C080915E04811102C042
:100B2000CC23D9F083E090E090935D0480935C0443
:100B3000CC2381F1CCE9DFEF111102C00E947D12BC
:100B4000CE01DF91CF911F91FF90EF90DF90CF907A
:100B5000BF90AF909F908F9008956AE070E080E022
:100B600090E00E94363180E1C80E87E2D81EE11C79
:100B7000F11C8FEF88169806A806B80631F0C1E080
:100B80008C149D04AE04BF0408F0C0E080E00E9415
:100B9000170EBECFD0E0C0E0CFCFCF92DF92EF9262
:100BA000FF920F931F93CF93DF938F3F910511F027
:100BB00008F050C020915C0430915D042330310571
:100BC00039F020915C0430915D042130310531F41D
:100BD00024E030E030935D0420935C046A017B01E3
:100BE000EC0182309105A0F011E0AE01C701B60121
:100BF000E9D7AB01BC01CE011123F9F0DF91CF9110
:100C00001F910F91FF90EF90DF90CF900C94A21462
:100C10008C01000F111F0E511C4FD8018D919C911A
:100C2000892B11F30E94AC140297F1F6D801ED91D3
:100C3000FC91CE011995182FD8CF0E94C41490E0D2
:100C400080E0DF91CF911F910F91FF90EF90DF90A7
:100C5000CF9008958FEF9FEFF4CF80E0E8C7CF9358
:100C6000DF9386E090E090935D0480935C040E94A3
:100C7000700EEC01E2EEF3E084E0DF011D928A9554
:100C8000E9F70E94151210925D0410925C04CE01E7
:100C9000DF91CF91089580915E040895809147047B
:100CA00008956093940270939502809396029093B6
:100CB000970290E080E008952F923F924F925F92CA
:100CC0006F927F928F929F92AF92BF92CF92DF925C
:100CD000EF92FF920F931F93CF93DF93CDB7DEB7C1
:100CE0006A970FB6F894DEBF0FBECDBF8091C00AE1
:100CF00081111092C00A60EB7AE08091C10A1DDC7C
:100D00008091C80A81111092C80A64EB7AE0809140
:100D1000C90A13DC60919002709191028091920255
:100D2000909193020E94DD2D20E030E040E859E2EE
:100D30000E94912E4B015C01C0906C02D0906D021C
:100D4000E0906E02F0906F026091B00A7091B10A6B
:100D50008091B20A9091B30A0E94DD2DA501940101
:100D60000E94912EA70196010E94912E698B7A8B89
:100D70008B8B9C8B6091B40A7091B50A8091B60AF6
:100D80009091B70A0E94DD2DA50194010E94912E39
:100D90009B01AC01C701B6010E94912E6D8B7E8B29
:100DA0008F8B988F2091FA0A3091FB0A4091FC0AB0
:100DB0005091FD0A69897A898B899C890E94D92C76
:100DC00069877A878B879C876093880A7093890AE2
:100DD00080938A0A90938B0A2091FE0A3091FF0A31
:100DE0004091000B5091010B6D897E898F89988D00
:100DF0000E94D92C6D877E878F87988B60938C0A91
:100E000070938D0A80938E0A90938F0A0091020B43
:100E10001091030BC0901A04D0901B04E0901C04A6
:100E2000F0901D04D8019C968D909D90AD90BC9043
:100E30009F97A7019601C501B4010E943E2D87FF2F
:100E400023C21092900A1092910A1092920A109264
:100E5000930A89859A85AB85BC858093940A909383
:100E6000950AA093960AB093970A8D859E85AF85C3
:100E7000B8898093980A9093990AA0939A0AB0939C
:100E80009B0A0091900A1091910A9091920A9D8379
:100E9000A091930AA983C801AD81B98180939C0A6E
:100EA00090939D0AA0939E0AB0939F0AC0907002EF
:100EB000D0907102E0907202F0907302A701960147
:100EC000B801CD010E948D2E1816A4F0C0907402B6
:100ED000D0907502E0907602F0907702A70196011B
:100EE000B8018D8199810E943E2D87FD03C0680164
:100EF000ED80F980E894F7F8C092A00AD092A10A98
:100F0000E092A20AF092A30A63E070E080E090E031
:100F100067DB9A8389839093F90A8093F80AC090DB
:100F2000A00AD090A10AE090A20AF090A30A20E0C3
:100F300030E04FE753E4C701B6010E943E2D18167A
:100F40000CF4B6C220E030E0A901C701B6010E944E
:100F50008D2E87FDB4C2B701A60189819A811EDB5F
:100F60000091900A1091910AB091920ABD83E0918C
:100F7000930AE983C0907802D0907902E0907A02D7
:100F8000F0907B02A7019601B8018B2F9E2F0E9443
:100F90008D2E1816A4F0C0907C02D0907D02E090B7
:100FA0007E02F0907F02A7019601B8018D819981A0
:100FB0000E943E2D87FD03C06801ED80F980E89412
:100FC000F7F8C092A40AD092A50AE092A60AF0927D
:100FD000A70A62E070E080E090E002DB9A838983F8
:100FE0009093E90A8093E80AC090A40AD090A50AD9
:100FF000E090A60AF090A70A20E030E04FE753E423
:10100000C701B6010E943E2D18160CF45CC220E008
:1010100030E0A901C701B6010E948D2E87FD5AC29A
:10102000B701A60189819A81B9DAF1E0F9832091AB
:1010300064023091650240916602509167026091AE
:10104000900A7091910A8091920A9091930A0E945D
:101050003E2D811101C0198289818093B80A682FC1
:1010600081E395DA91E099832091680230916902D9
:1010700040916A0250916B026091900A7091910ABE
:101080008091920A9091930A0E943E2D811101C095
:101090001982A981A093B90A6A2F80E378DAC090F7
:1010A000900AD090910AE090920AF090930A809072
:1010B000800290908102A0908202B0908302A501EC
:1010C0009401C701B6010E948D2E18160CF006C2BD
:1010D0008092A80A9092A90AA092AA0AB092AB0A9A
:1010E00064E070E080E090E07BDA9A8389839093FB
:1010F000F10A8093F00AC090A80AD090A90AE09063
:10110000AA0AF090AB0A20E030E04FE753E4C701B1
:10111000B6010E943E2D18160CF4F9C120E030E013
:10112000A901C701B6010E948D2E87FDF7C1B70145
:10113000A60189819A8132DAC090900AD090910AF2
:10114000E090920AF090930A809088029090890231
:10115000A0908A02B0908B02A5019401C701B6014C
:101160000E948D2E18160CF0DDC18092AC0A909270
:10117000AD0AA092AE0AB092AF0A65E070E080E0DE
:1011800090E02EDA9A8389839093E10A8093E00AB3
:10119000C090AC0AD090AD0AE090AE0AF090AF0AD1
:1011A00020E030E04FE753E4C701B6010E943E2D36
:1011B00018160CF4D0C120E030E0A901C701B60137
:1011C0000E948D2E87FDCEC1B701A60189819A812B
:1011D000E5D989899A89AB89BC898093FA0A909369
:1011E000FB0AA093FC0AB093FD0A8D899E89AF8902
:1011F000B88D8093FE0A9093FF0AA093000BB093E2
:10120000010B60911E0470911F0480912004909145
:1012100021046F5F7F4F8F4F9F4F60931E04709329
:101220001F0480932004909321040E94DB2D9B01D6
:10123000AC01609122047091230480912404909168
:1012400025040E94912E60931A0470931B048093CE
:101250001C0490931D046A960FB6F894DEBF0FBE6F
:10126000CDBFDF91CF911F910F91FF90EF90DF9055
:10127000CF90BF90AF909F908F907F906F905F9036
:101280004F903F902F900895A7019601F80160813B
:101290007181828193810E948D2E87FF9DC0A7015D
:1012A0009601C501B4010E943E2D18160CF097C09E
:1012B00080910C0B90910D0B9A8389835C01AA0C91
:1012C000BB1CAA0CBB1C48018A0C9B1CA7019601E5
:1012D000D4016D917D918D919C910E948D2EB4E0F1
:1012E000AB0EB11CA00EB11E18160CF068C0F4E0D5
:1012F0008F1A9108A7019601D40114966D917D91E2
:101300008D919C9117970E948D2E18160CF44CC04D
:101310002090040B3090050B89819A8190930D0BDE
:1013200080930C0B880F991F880F991F9A8F898FB4
:10133000FC01E00FF11F80819181A281B3818D8337
:101340009E83AF83B887A98DBA8D1496BA83A9837B
:10135000FD01E00FF11F80809180A280B380A50184
:1013600094016D817E818F8198850E943E2D81112F
:1013700041C02D813E814F815885C701B6010E9431
:101380003E2D87FF31C0E98DFA8DE20DF31D80817E
:101390009181A281B3818093900A9093910AA09346
:1013A000920AB093930A55CDE981FA813197FA8375
:1013B000E9839DCFE981FA813196FA83E983D501EA
:1013C0006D917D918D919D915D01A70196010E9486
:1013D0003E2D18167CF79CCF1A82198299CFEAE02D
:1013E000F0E0FA83E98394CF89819A81280E391E2F
:1013F000F101CDCF898D9A8D820D931DDC014D9029
:101400005D906D907C90E981FA812E0E3F1ED10196
:101410008D919D910D90BC91A02D89839A83AB8372
:10142000BC839C01AD01C301B2010E943E2D882303
:10143000B1F1A7019601C501B4010E94D92C6B013D
:101440007C012D813E814F815885C501B4010E94E8
:10145000D92C9B01AC01C701B6010E94422D6B0142
:101460007C01AC019B0160E070E080E89FE30E949A
:10147000D92C29813A814B815C810E94912E4B01AC
:101480005C01A3019201C701B6010E94912E9B014C
:10149000AC01C501B4010E94DA2C2B013C01409241
:1014A000900A5092910A6092920A7092930AD1CC5B
:1014B000C12CD12C3FE7E32E33E4F32E4CCDC12CCD
:1014C000D12C760148CDC12CD12C2FE7E22E23E47C
:1014D000F22EA6CDC12CD12C7601A2CD8090840213
:1014E00090908502A0908602B0908702A501940199
:1014F000C701B6010E943E2D87FDEACDC092A80A21
:10150000D092A90AE092AA0AF092AB0AE9CDC12CC6
:10151000D12C9FE7E92E93E4F92E09CEC12CD12CD2
:10152000760105CE80908C0290908D02A0908E0264
:10153000B0908F02A5019401C701B6010E943E2D13
:1015400087FD13CEC092AC0AD092AD0AE092AE0AEB
:10155000F092AF0A12CEC12CD12C8FE7E82E83E493
:10156000F82E32CEC12CD12C76012ECE8F929F92A6
:10157000AF92BF92DF92EF92FF920F931F93CF93A0
:10158000DF93E4E0F4E080E090E0A0E8BFEB82A32A
:1015900093A3A4A3B5A38AE097EDA3E2BCE3868F4F
:1015A000978FA0A3B1A389E091E0A5E1B8E184837E
:1015B0009583A683B78380E596E0A2E3B6EE8087A5
:1015C0009187A287B38784ED93E9A6E6B0EA848782
:1015D0009587A687B78785E999E5AFE5BCE0808B5D
:1015E000918BA28BB38BA8EFB3E0B383A283E6EE1B
:1015F000F3E01196FC93EE938DEC92E0918380835F
:10160000938382839583848397838683918780875E
:10161000938782879587848797878687918B808B2E
:1016200088E194E015969C938E93149788E094E05B
:1016300013969C938E9312974FEF5FEFBA01189613
:101640004D935D936D937C931B97CAEBDAE080E337
:1016500092E09093030B8093020B80E092E09093D2
:10166000050B8093040B10920D0B10920C0B8091C4
:10167000600290916102A0916202B0916302809336
:10168000FA0A9093FB0AA093FC0AB093FD0A809398
:10169000FE0A9093FF0AA093000BB093010B1F82E8
:1016A0001882812C912C5401839489829A82AB8276
:1016B000BC8241EC5AE063E182E10E949401DD24A6
:1016C000D394DD821E828F810E94AF021F8618860E
:1016D00089869A86AB86BC8649EC5AE065E184E14E
:1016E0000E949401DD861E868F850E94AF0218AE8F
:1016F00089AE9AAEABAEBCAEE12CF12C8701A8014D
:10170000970163E070E080E090E00E9434039FAFB7
:101710008EAFDDAE18A689A69AA6ABA6BCA6A80178
:10172000970162E070E080E090E00E9434039FA7A0
:101730008EA7DDA6188E898E9A8EAB8EBC8E61E048
:1017400081E30E94BF02DD8E188A898A9A8AAB8A59
:10175000BC8A61E080E30E94BF02DD8A18AA89AAE0
:101760009AAAABAABCAAA801970164E070E080E045
:1017700090E00E9434039FAB8EABDDAA18A289A231
:101780009AA2ABA2BCA2A801970165E070E080E03C
:1017900090E00E9434039FA38EA3DDA2DF91CF913E
:1017A0001F910F91FF90EF90DF90BF90AF909F90AF
:1017B0008F9008958091BA0A811114C081E08093BE
:1017C000BA0A8091BB0A9091BC0AA091BD0AB0915F
:1017D000BE0A0197A105B10529F48091BF0A8111C4
:1017E0000E94BC028091C20A811114C081E08093E2
:1017F000C20A8091C30A9091C40AA091C50AB0910F
:10180000C60A0197A105B10529F48091C70A811183
:101810000E94BC028091F20A81112EC081E0809367
:10182000F20A8091F30A9091F40AA091F50AB0911E
:10183000F60A0197A105B105F9F48091F70A88230A
:10184000D9F063E070E080E090E00E94F0029093B5
:10185000F90A8093F80A40E050E0BA010E94CE02F3
:1018600063E070E080E090E00E94F0029093F90A5B
:101870008093F80A0E947F038091E20A81112EC0B2
:1018800081E08093E20A8091E30A9091E40AA091BA
:10189000E50AB091E60A0197A105B105F9F4809136
:1018A000E70A8823D9F062E070E080E090E00E94CF
:1018B000F0029093E90A8093E80A40E050E0BA0110
:1018C0000E94CE0262E070E080E090E00E94F002B0
:1018D0009093E90A8093E80A0E947F038091D20ADC
:1018E000811103C081E08093D20A8091CA0A8111DC
:1018F00003C081E08093CA0A8091EA0A81112EC058
:1019000081E08093EA0A8091EB0A9091EC0AA09121
:10191000ED0AB091EE0A0197A105B105F9F48091A5
:10192000EF0A8823D9F064E070E080E090E00E9444
:10193000F0029093F10A8093F00A40E050E0BA017F
:101940000E94CE0264E070E080E090E00E94F0022D
:101950009093F10A8093F00A0E947F038091DA0A43
:1019600081112EC081E08093DA0A8091DB0A909188
:10197000DC0AA091DD0AB091DE0A0197A105B1054C
:10198000F9F48091DF0A8823D9F065E070E080E007
:1019900090E00E94F0029093E10A8093E00A40E018
:1019A00050E0BA010E94CE0265E070E080E090E075
:1019B0000E94F0029093E10A8093E00A0C947F0366
:1019C00008954F925F926F927F928F929F92AF9203
:1019D000BF92CF92DF92EF92FF920F931F93F894F2
:1019E00040903704509038046090390470903A0465
:1019F000C0902B04D0902C04E0902D04F0902E0485
:101A0000452B09F0A4C09B01AC01241935094609F6
:101A1000570929013A0100913304109134042091AF
:101A200035043091360448015901840C951CA61CDC
:101A3000B71C80169106A206B306A0F400912F04ED
:101A40001091300420913104309132040F5F1F4F08
:101A50002F4F3F4F00932F041093300420933104F5
:101A6000309332048092330490923404A09235046F
:101A7000B092360400912F0410913004209131046B
:101A80003091320480923B0490923C04A0923D0439
:101A9000B0923E0400933F0410934004209341040D
:101AA0003093420460933704709338048093390470
:101AB00090933A04A0E1B7E2A30192010E94373764
:101AC0006C0D7D1D8E1D9F1D60932B0470932C0447
:101AD00080932D0490932E0400919402109195020E
:101AE00020919602309197020F3F1F4F2F4F3F4F8B
:101AF000F1F000919402109195022091960230919C
:101B000097020E3F1F4F2F4F3F4F89F0C090940216
:101B1000D0909502E0909602F090970221E08C140C
:101B20009D04AE04BF0408F420E020934704789499
:101B30001F910F91FF90EF90DF90CF90BF90AF90EB
:101B40009F908F907F906F905F904F9008954B0182
:101B50005C0184189508A608B708A3019201261B0A
:101B6000370B480B590B6415750586059705D0F0A2
:101B700082169306A406B50640F420E030E0A901E1
:101B800081149104A104B10491F4A0E1B7E20E9490
:101B90003737A7019601261B370B480B590BCA0193
:101BA000B901C5CF82169306A406B50670F7A0E169
:101BB000B7E2A50194010E9437376C0D7D1D8E1D83
:101BC0009F1DB5CFFECECF93DF9300D01F92CDB730
:101BD000DEB71C821B821A82198210924304109273
:101BE00044041092450410924604BE016F5F7F4F7B
:101BF000CE0103960E94E22A69817A818B819C81C1
:101C00000E94D023009761F4BE016F5F7F4FCE0129
:101C100003960E94EE2A69817A818B819C812AD564
:101C20000F900F900F900F90DF91CF910895FF923A
:101C30000F931F93CF93DF93082F60E070E0CB01E9
:101C40000E943631FF24F3940E94B922EC01892BC3
:101C500089F010E0CE3F8FEFD80769F0002361F1E3
:101C600060E070E0CB010E94363181E090E0892B8A
:101C700059F322C011E021D5EC01892B21F0CE3F90
:101C80008FEFD80759F711111EC011E0229609F401
:101C900010E00E946922EC01892B21F0CE3F8FEFEA
:101CA000D807E1F6111111C011E0CE3F8FEFD80730
:101CB00009F410E001110BC0CE01DF91CF911F910B
:101CC0000F91FF90089511E0E4CF11E0F3CF60E0B1
:101CD00070E0CB010E9436311F25812F90E0C7CFE5
:101CE000CF93DF9380914704882321F060E070E078
:101CF000CB0148D631D6D0E0C0E0892B71F06AE044
:101D000070E080E090E00E94363181E090DF24D6E0
:101D10002196C03D27E0D20781F723D60E942424D4
:101D200010925F0410925E041092580410925904AD
:101D300010925A0410925B041092540410925504AD
:101D400010925604109257041092500410925104AD
:101D5000109252041092530410924C0410924D04AD
:101D600010924E0410924F041092480410924904AD
:101D700010924A0410924B044EEF5FEF6FEF7FEF2B
:101D80004093940250939502609396027093970249
:101D900010924704EBE3F4E028E0DF011D922A955E
:101DA000E9F7109237041092380410923904109217
:101DB0003A041092330410923404109235041092B5
:101DC000360410922F0410923004109231041092B5
:101DD000320410922B0410922C0410922D041092B5
:101DE0002E04DF91CF91089510926B0410926C0431
:101DF00010926D0410926E0410926A048091730424
:101E0000909174049093690480936804109267041D
:101E1000109266041092620410926304109264049B
:101E2000109265041092700410926F0490E080E0AC
:101E30000895CF92DF92EF92FF920F931F93CF936B
:101E40008C01892B09F055C02091730430917404E2
:101E500080916804909169044091730450917404D6
:101E600050936904409368042817390781F0109251
:101E70006704109266041092620410926304109238
:101E80006404109265041092700410926F048091A3
:101E9000730490917404019761F580916F0490919F
:101EA0007004892B21F480919802811112C08091D5
:101EB0006F04909170040197E1F480916204909115
:101EC0006304A0916404B09165040197A105B10574
:101ED00081F41092620410926304109264041092D0
:101EE00065041092980282E090E0909370048093D1
:101EF0006F048091730490917404019709F01CC1E0
:101F00008091890490918A048017910709F014C187
:101F10008091850490918604A0918704B0918804F3
:101F2000009709F409C12091840421110DC040914A
:101F30008504509186046091870470918804452B34
:101F4000462B472B09F4F8C020916F0430917004A0
:101F50002230310509F0F0C0209166042111ECC057
:101F6000FC01C080D180E280F38080916A048823E4
:101F700009F4D3C08091760490917704892B09F4F9
:101F8000FDC0209176043091770481E02230310544
:101F900009F080E02091760430917704C1E021308F
:101FA000310549F02091760430917704C1E0223068
:101FB000310509F0C0E0882309F456C0209180045F
:101FC000309181044091820450918304C701B6018D
:101FD0000E948D2E87FD14C02091800430918104D1
:101FE000409182045091830460916B0470916C0461
:101FF00080916D0490916E040E943E2D87FD22C059
:102000002091800430918104409182045091830496
:10201000C701B6010E948D2E181634F52091800458
:1020200030918104409182045091830460916B044B
:1020300070916C0480916D0490916E040E943E2D0D
:10204000811112C08091780490917904A0917A0452
:10205000B0917B04892B8A2B8B2B19F481E0809320
:10206000670481E080936604CC2309F456C0209174
:102070008004309181044091820450918304C7010F
:10208000B6010E943E2D87FF14C02091800430913C
:102090008104409182045091830460916B0470919B
:1020A0006C0480916D0490916E040E948D2E87FFC8
:1020B00022C020918004309181044091820450918B
:1020C0008304C701B6010E943E2D811126C02091D4
:1020D0008004309181044091820450918304609186
:1020E0006B0470916C0480916D0490916E040E9459
:1020F0008D2E181694F48091780490917904A09113
:102100007A04B0917B04892B8A2B8B2B19F481E004
:102110008093670481E08093660481E09091660477
:10212000911180E080936A04C0926B04D0926C0499
:10213000E0926D04F0926E04012B09F067C180916A
:102140006F0490917004892BD9F410927504109249
:10215000660480919802882379F082E090E0909361
:10216000700480936F041092980220917304309150
:10217000740481E0232BE9F080E01BC081E00ACFEA
:102180001092980280917504882349F01092670498
:102190001092700410926F0410927504EDCF80912C
:1021A000730490917404892BE1F08091660410927D
:1021B000660420916F04309170042230310509F4D7
:1021C0005EC088F42115310509F448C0213031057D
:1021D00009F4F3C01092670410926604109275041B
:1021E00038C081E0E6CF2330310509F4B1C0243096
:1021F000310581F740916204509163046091640459
:1022000070916504411551056105710561F04150FA
:10221000510961097109409362045093630460930A
:10222000640470936504409162045091630460916A
:10223000640470916504452B462B472BD9F42091FB
:102240007104309172042130310509F046C01092BA
:1022500067041092700410926F040CC08091980271
:10226000882341F082E090E09093700480936F04A3
:10227000109298021092600480916704CEC0882367
:10228000C9F38091780490917904A0917A04B09177
:102290007B04181619061A061B060CF07DC08091E7
:1022A000730490917404019709F076C080917804CA
:1022B00090917904A0917A04B0917B048093620498
:1022C00090936304A0936404B093650483E090E06A
:1022D0009093700480936F04CDCF40917C04509113
:1022E0007D0460917E0470917F04452B462B472B23
:1022F000A9F01092670480917C0490917D04A091D4
:102300007E04B0917F048093620490936304A09351
:102310006404B093650481E090E0DACF882399F0FB
:102320008091990290919A02A0919B02B0919C0297
:102330008093620490936304A0936404B093650453
:1023400084E090E0C5CF1092670482E090E0C0CFB7
:102350008091620490916304A0916404B09165043B
:102360000097A105B10559F00197A109B109809322
:10237000620490936304A0936404B0936504809115
:10238000620490916304A0916404B0916504892B68
:102390008A2B8B2B09F06ECF8091990290919A0233
:1023A000A0919B02B0919C02892B8A2B8B2B09F464
:1023B0004ECF81E080936704B3CF40916204509187
:1023C00063046091640470916504411551056105D1
:1023D000710561F04150510961097109409362042E
:1023E00050936304609364047093650440916204A5
:1023F000509163046091640470916504452B462BF1
:10240000472B09F037CF8111C7CF9FCF8091600450
:10241000882309F431CF80916104CF911F910F91EE
:10242000FF90EF90DF90CF90089510926B04109280
:102430006C0410926D0410926E0410926A04109253
:10244000700410926F041092690410926804109244
:102450008A04109289041092670410926604109204
:102460006204109263041092640410926504109246
:1024700061041092600410928504109286041092F8
:1024800087041092880410928404109280041092A1
:102490008104109282041092830488EE93E0A0E0FD
:1024A000B0E08093990290939A02A0939B02B0931C
:1024B0009C0210927C0410927D0410927E04109273
:1024C0007F04109278041092790410927A0410928A
:1024D0007B04109277041092760481E08093980236
:1024E0001092750410927404109273041092720486
:1024F0001092710490E080E00895809173049091AF
:102500007404892BE1F480919802882351F0809122
:102510007504811106C081E080936104809360049A
:10252000089580917504882341F08091980281116B
:1025300004C01092610481E0F1CF1092600408950C
:1025400082E090E0FA01918380838FEF9FEF0895FE
:10255000CF93DF93EA01009711F00E94442519827E
:10256000188290E080E0DF91CF910895DB01009721
:1025700019F48FEF8C9308952EEF2C93FC01709635
:10258000E031F10508F037C08827E653FD4E8F4F44
:102590000C942F37F912F712F512F312F112EF1211
:1025A000EB12ED12E912E712E512E212DE12DA1274
:1025B000E012FB1280E311968C93089589E2FBCF21
:1025C00082E2F9CF11961C92089583E2F4CF81E262
:1025D000F2CF81E1F0CF87E2EECF8AE2ECCF80E16B
:1025E000EACF84E2E8CF88E2E6CF86E2E4CF81E377
:1025F000E2CF83E3E0CF80E2DECF80919704909139
:102600009804089590939804809397040895809176
:102610009604089590919604892B809396040895CA
:10262000982F90958091960489238093960408951D
:102630008091950408958091930490919404089555
:102640006115710559F0FB0130E020E070E060E0B9
:102650002417350719F06115710511F0CB010895A4
:10266000A081B181A817B90709F4BF012F5F3F4FBF
:102670003696EECF8091990481111CC060D266D24B
:1026800090938C0480938B040E94421D0E94541DE1
:102690009093900480938F040E94D1210E94D821AE
:1026A00090938E0480938D0481E08093990490E050
:1026B00080E0089584EF9FEF08958F929F92AF92EC
:1026C000BF92CF92DF92EF92FF920F931F93CF931F
:1026D000DF9300D000D000D01F92CDB7DEB71A86AE
:1026E000198618861F821E821D821C821B821A82F6
:1026F00019828091990407EF1FEF882309F49CC089
:102700008E010D5F1F4F9E012B5F3F4FAE01495F52
:102710005F4FBE01675F7F4F90E080E00E945523CE
:102720008C01009721F00596029708F0DBC02985FF
:102730003A852115310509F402C1ED80FE804B81F7
:102740005C81B701640F751F8F8198858617970785
:1027500008F4F5C0E20EF31ED7019C91903C09F0FD
:102760007FC04230510508F47BC011968C91409196
:10277000970450919804452B09F49CC0913F08F0B0
:1027800071C02CE1290F2D3008F48BC02DE2290FE8
:10279000203108F489C0903C21F48150823008F443
:1027A00083C088E3890F8B3008F481C096EBC92E73
:1027B00092E1D92EE0EAF2E16D817E81AE014F5FB8
:1027C0005F4F89859A8519955C01C114D104A1F1E7
:1027D00089809A808114910479F18B819C8188157C
:1027E000990508F487C010E000E04B815C8170E03F
:1027F00060E0C7010E94593701151105E9F44981CC
:102800005A8169857A858D819E81680F791FC501FE
:10281000F6011995E980FA800D811E812F81388596
:1028200049855A856FEF7FEF81E090E00E94F022AA
:102830008C01892B09F056C0C8012A960FB6F8946E
:10284000DEBF0FBECDBFDF91CF911F910F91FF90E3
:10285000EF90DF90CF90BF90AF909F908F900895B2
:1028600080E085CF30E020E0220F331FF901E557EB
:10287000FB4F0190F081E02D309709F497CF892F1D
:1028800090E01995009709F491CFDC011296ED9133
:10289000FC9113971496CD90DC90309709F08CCF73
:1028A0001FC021E030E0E0CF22E030E0DDCF23E0C8
:1028B00030E0DACFD12CC12CE8EAF2E19F3F09F0F9
:1028C0007BCFE0918B04F0918C04309721F4C90107
:1028D00004EF1FEF0CC08FEF90E019950097A9F659
:1028E00004EF1FEF89859A85009709F4A5CF0E9410
:1028F0004425A2CF0E941F248C0189859A850E94BD
:10290000442570E060E0C4010E94B82398878F835B
:102910000E94ED229E838D836F81788561157105FC
:1029200059F0C8010E94D0269A87898706EF1FEFC9
:10293000892B09F058CF59CF08EF1FEF56CF08EF7A
:102940001FEFD0CF20919904222319F020E00C949E
:10295000591D87EF9FEF08958091970490919804F7
:1029600008950E94DD210E943721F5D0EBE8F4E0C4
:1029700088E0DF011D928A95E9F71092990490E0B2
:1029800080E008950C94951F21E040E050E0BA01EA
:102990000C94591D86E090E0FA019183808390E0C9
:1029A00080E0089547E050E060ED72E049CEDF92AC
:1029B000EF92FF920F931F93CF93DF938A01EC0165
:1029C000C60FD71FE0909D04F0909E04D9800E940E
:1029D0000724D816190678F082E090E0F801918378
:1029E00080838EEF9FEFDF91CF911F910F91FF902A
:1029F000EF90DF900895EF2841F482E090E0F80135
:102A00009183808384EF9FEFEECF898180939C0434
:102A100090E00196F8019183808390E080E0E3CF1D
:102A2000CF93DF93EA010E944620882321F00E9481
:102A300014240E94472082E090E0998388838BEFE2
:102A40009FEFDF91CF910895CF93DF93EB0186E065
:102A5000FB0111928A95E9F78FEF8883D8DD89838E
:102A6000E7DD8A83E8DD9D838C83DF91CF91089534
:102A7000CF93DF93EA010E944920811109C082E0CF
:102A800090E09983888385EF9FEFDF91CF91089540
:102A900090E080E0B7DD81E090E09983888390E06A
:102AA00080E0F3CF0F931F93CF93DF93EA018C0164
:102AB000060F171F0E94492081110BC082E090E091
:102AC0009983888385EF9FEFDF91CF911F910F91BD
:102AD0000895F8018181823038F082E090E0998396
:102AE00088838EEF9FEFF0CF81E090E08BDD88E070
:102AF00090E09983888390E080E0E6CFCF93DF93E6
:102B00000097D1F4EB01FB01329686E0DF011D92C4
:102B10008A95E9F78FEF888385E089831A820E947E
:102B200007248B830E9406249D838C8381E08E83FF
:102B30008F83DF91CF910895DF91CF9117CD82EDF3
:102B400094E190939B0480939A04089580919A0451
:102B500090919B04089510929B0410929A040895FA
:102B600080919D0490919E040895411105C06115C6
:102B700071058105910561F060939D0470939E0439
:102B800080939F049093A0044093A10481E0089552
:102B900080E00895FF920F931F93CF93DF938A01F4
:102BA000EC01C60FD71FF9800E940724F8161906FA
:102BB00068F082E090E0F801918380838EEF9FEFD0
:102BC000DF91CF911F910F91FF9008956C817D81CE
:102BD0008E819F814B81C9DF811108C082E090E026
:102BE000F8019183808384EF9FEFEACF89818093FE
:102BF0009C0490E00196F8019183808390E080E04E
:102C0000DFCFCF93DF93EA01FC01E60FF71F64816A
:102C10007581868197814381A8DF811109C082E097
:102C200090E09983888384EF9FEFDF91CF9108959F
:102C300081E090E09983888390E080E0F6CFEDE931
:102C4000F4E04081518162817381480F511D611D03
:102C5000711D40835183628373830895CF93C09124
:102C60009C044C2F50E060919D0470919E0401964D
:102C70000E9450378C2FE3DF10929C04CF9108956F
:102C8000009799F480919D0490919E042FEFFB0191
:102C90002083892B59F020919C0430E02F5F3F4F17
:102CA0002417350719F4CB01D9CF60CC08950097CC
:102CB00099F480919D0490919E042FEFFB01208355
:102CC000892B59F020919C0430E02F5F3F4F24174F
:102CD000350719F4CB01C2CF49CC089523E1AC01EB
:102CE000249FC001259F900D1124E091A604F0912E
:102CF000A704E80FF91F238134812250310981E0B4
:102D00002230310508F080E008950F931F93CF9390
:102D1000DF930091A8041091A904D0E0C0E080E006
:102D20000C171D0749F491E0811190E0892FDF9184
:102D3000CF911F910F9108958111F5CFCE01CEDF74
:102D40002196EECFA091A604B091A704109729F187
:102D50002091A8043091A90482179307F0F453E15D
:102D6000589F9001599F300D1124A20FB31FED9170
:102D7000FC911197309789F012968C91681768F43E
:102D80008DE0689FE00DF11D112480819181892BD8
:102D900021F081E09281491708F080E008959C01BC
:102DA00043E1429FC001439F900D1124E091A6048E
:102DB000F091A704E80FF91F8385823091F481E038
:102DC00090E06581768140919D0250919E0264174A
:102DD000750711F490E080E0892B19F081E0232B36
:102DE00009F080E00895FC01A081B1818DE0689F29
:102DF000A00DB11D112413964D915C91858596858A
:102E0000489F9001499F300D589F300D1124C901F2
:102E10000196611103C0478144FD04960895EF9225
:102E2000FF920F931F93CF93DF93EA01FC01E60F0C
:102E3000F71F02811381E480F5804F2D6E2DC801AC
:102E400081DF81110DC082E090E0998388838EEF4D
:102E50009FEFDF91CF911F910F91FF90EF90089519
:102E6000C8013CDF882339F082E090E099838883B1
:102E700088EF9FEFEECF1093A4020093A302E0929D
:102E8000A502F092A60281E090E09983888390E009
:102E900080E0DFCFCF92DF92EF92FF920F931F93EC
:102EA000CF93DF937A01EC01C60FD71FC090A30226
:102EB000D090A4020091A5021091A602412F602F8C
:102EC000C60140DF811110C082E090E0F7019183DC
:102ED00080838AEF9FEFDF91CF911F910F91FF9039
:102EE000EF90DF90CF900895C601F8DE882341F07F
:102EF00082E090E0F7019183808388EF9FEFEBCF32
:102F00004C815D816E817F819A8189818F3F41F003
:102F100082E090E0F701918380838EEF9FEFDBCF1B
:102F2000E3E1EC9D9001ED9D300D1124E091A604AC
:102F3000F091A704E20FF31F0190F081E02D2DE046
:102F4000029FE00DF11D11240190F081E02D27E09A
:102F5000129FE00DF11D1124808391838B81828368
:102F600043835483658376831F5F1093A60281E0B9
:102F700090E0F7019183808390E080E0ACCFEF9206
:102F8000FF920F931F93CF93DF937A018C01060F6B
:102F9000171FC091A604D091A704209781F021E0CB
:102FA00030E0F801828193814091A8045091A904F6
:102FB0008417950710F030E020E0232B71F482E0B5
:102FC00090E0F701918380838EEF9FEFDF91CF91A7
:102FD0001F910F91FF90EF90089543E1489F90015A
:102FE000499F300D1124C20FD31F78DE882341F092
:102FF00082E090E0F7019183808388EF9FEFE6CF36
:10300000F8012481358120383105C8F68781811186
:10301000D6CF4181842F90E08F7E009741F082E0EF
:1030200090E0F7019183808386EF9FEFCFCF4F83AE
:103030003E832D83268128871986223010F421E0D3
:10304000288721E030E0F70131832083BFCF88E07B
:1030500090E0FA019183808390E080E00895FB0185
:103060008FEF808381E181838FEF9FEF9383828352
:1030700080E890E095838483168217820895FB018F
:103080008FEF808391E0918382839383848384E3B1
:10309000858381E090E097838683089582E090E0C5
:1030A000FA019183808380EF9FEF0895DF92EF9282
:1030B000FF920F931F93CF93DF93EA01FC01E60F7A
:1030C000F71F8181813071F082E090E099838883DD
:1030D0008FEF9FEFDF91CF911F910F91FF90EF90B6
:1030E000DF90089582819381D4802581E680F780E6
:1030F0000091A6041091A7040115110539F482E08E
:1031000090E0998388838CEF9FEFE4CF4091A804EF
:103110005091A9048417950738F082E090E09983D4
:1031200088838EEF9FEFD6CF892B39F082E090E035
:103130009983888386EF9FEFCDCF8D2D8D7FB1F75B
:103140002130A1F781E0D11006C091E0E916F10429
:1031500031F080E004C0E2E0EE16F104D0F3882301
:1031600029F390E080E0BADD882339F082E090E036
:103170009983888388EF9FEFADCFF801D38681E0F4
:103180008487F686E586108A178681E090E0998329
:10319000888390E080E09ECF4DE050E06AEF72E0DF
:1031A0004FCA8F929F92BF92CF92DF92EF92FF927F
:1031B0000F931F93CF93DF93EA01FC01E60FF71FF4
:1031C000828193810481B580E091A604F091A704E7
:1031D000309791F482E090E0998388838CEF9FEFA1
:1031E000DF91CF911F910F91FF90EF90DF90CF90E3
:1031F000BF909F908F9008952091A8043091A904CA
:103200008217930738F082E090E0998388838EEFED
:103210009FEFE6CF23E1289F6001299FD00C112466
:10322000EC0DFD1DE080F180E114F10499F2828142
:10323000081748F78DE0089F80011124E00EF11E69
:10324000F70180819181892B29F6BB20E1F2F7E01B
:10325000BF9E40011124C4010E940B25F7019183F8
:103260008083E091A604F091A704EC0DFD1D019070
:10327000F081E02DE00FF11F80819181009739F4FA
:1032800082E090E0998388838DEF9FEFA9CFA4011E
:1032900070E060E00E9459378091A6049091A704E5
:1032A000C80ED91EF60180819181080F191FF801FF
:1032B000B28281E090E09983888390E080E090CFB3
:1032C000AF92BF92CF92DF92FF920F931F93CF9353
:1032D000DF93EA01FC01E60FF71F82819381F480FE
:1032E0000091A6041091A7040115110581F482E054
:1032F00090E0998388838CEF9FEFDF91CF911F91AE
:103300000F91FF90DF90CF90BF90AF9008952091E4
:10331000A8043091A9048217930738F082E090E066
:10332000998388838EEF9FEFE8CF2FEF2F0D2C3FEF
:10333000A8F723E1289F6001299FD00C11240C0DD0
:103340001D1DF80180819181892B89F6FDE0FF9E8A
:1033500050011124C5010E940B25F801918380833F
:10336000E091A604F091A704EC0DFD1D80819181F0
:10337000009739F482E090E0998388838DEF9FEF86
:10338000BCCFA50170E060E00E945937E091A6042F
:10339000F091A704EC0DFD1DF28281E090E099838D
:1033A000888390E080E0A9CFCF92DF92EF92FF92E6
:1033B0000F931F93CF93DF93860F971FFC0102811A
:1033C00013818091A6049091A704892B81F082E05B
:1033D00090E0FA01918380838CEF9FEFDF91CF9192
:1033E0001F910F91FF90EF90DF90CF900895C8014B
:1033F000B0E0A0E00197A109B1098F3F9F4FA1055F
:10340000B10540F082E090E0FA01918380838EEF75
:103410009FEFE4CF7A0183E1809F6001819FD00C10
:103420001124C6010E940B25EC01009741F482E0B3
:1034300090E0F701918380838DEF9FEFCFCFA601BE
:1034400070E060E00E945937D093A704C093A604AF
:103450001093A9040093A80490E080E02FEF3FEFC1
:1034600041E061E070E08017910741F481E090E075
:10347000F7019183808390E080E0B0CF3A8B298B75
:103480001B864C877E876D87188A1F8601966396F8
:10349000EACFEF92FF921F93CF93DF93EC0110E0FE
:1034A000F12CE12C6A811617B0F083E0689FB0011F
:1034B0001124AE014F5E5F4FC7010E947025009737
:1034C00021F02FEF3FEF3A8B298BDF91CF911F91A6
:1034D000FF90EF900895612FCE0185DC61E070E0F0
:1034E0000E94B823E816F90608F47C011F5FDACFC2
:1034F000F8942091A4043091A50481E021153105B0
:1035000009F080E0232B09F0789408952F923F92E0
:103510004F925F926F927F928F929F92AF92BF92E3
:10352000CF92DF92EF92FF920F931F93CF93DF938F
:103530003C01660E771EF301828193814C01B12C10
:10354000A12CC091A604D091A704209769F021E096
:1035500030E06091A8047091A9048617970710F0D5
:1035600030E020E0232BD1F482E090E0FA01918357
:1035700080838EEF9FEFDF91CF911F910F91FF908E
:10358000EF90DF90CF90BF90AF909F908F907F9003
:103590006F905F904F903F902F9008958092A70278
:1035A0009092A802A092A902B092AA0263E1689F39
:1035B0009001699F300D1124C20FD31FF301818147
:1035C000833040F082E090E0FA019183808386EFBF
:1035D0009FEFD1CF2A012B813C81232BF1F428814D
:1035E00039819F8191FF2EC0232B09F46FC0209158
:1035F000AB049A81422F490F5527551FBA0141E06C
:1036000050E06138710514F050E040E0452B09F4BA
:103610005DC02A87920F9093AB048150823008F4EA
:1036200081C066DF882309F4D8C0F301818181302D
:1036300009F48DC008F47BC0823009F4C6C090E064
:1036400080E0ADC0232B09F441C02091AA049A81E7
:10365000E22FE90FFF27FF1F41E050E0ED3FF105AA
:1036600014F050E040E0452B89F12A87920F9093A7
:10367000AA04D3CFA081B181A20FB31F11966C9180
:10368000060F111D0196295F3F4F8417950794F38C
:103690008D859E85089F1001099F300C189F300C66
:1036A0001124C114D104D1F48F8184FF17C00E946A
:1036B0000624F5E02F0E311C21E08215930508F455
:1036C00020E0A701435F5F4F21110EC082E090E030
:1036D000F2019183808387EF9FEF4DCF0E940624F4
:1036E0002FEF221A320AE8CF88819981E80EF91E5D
:1036F000F70114830383FFEFCF1ADF0A7A018A816F
:103700008C151D0409F00CF48CCFE881F981EE0DC5
:10371000FF1D428150E030E020E010E000E090E04A
:1037200080E0B3CFF12CE12CD12CC12CE8CF81E08B
:1037300090E09C838B83E9DA882309F480CF81E0D1
:1037400090E00E94021380E40E94101378CF8989D0
:103750009A89019661F083E090E09C838B8382E0FC
:1037600090E00E94021380E40E940A1368CF8D81CA
:103770009E8120919D0230919E0282179307D1F481
:103780006091A1027091A202AE014F5E5F4F8091E5
:103790009F029091A0020E948F260097E1F27894F8
:1037A00022E030E0F20131832083892B99F08DEF04
:1037B0009FEFE1CE89288A288B2869F6892B59F654
:1037C000CE0167DE188A1F86E8CF82E090E09C83F6
:1037D0008B8335CF90E080E0CECE82E090E0F201A6
:1037E0009183808385EF9FEFC6CE8F929F92AF9299
:1037F000BF92CF92DF92EF92FF920F931F93CF93DE
:10380000DF93EA018C01060F171FF80181818330D5
:1038100098F082E090E09983888386EF9FEFDF91B4
:10382000CF911F910F91FF90EF90DF90CF90BF90BD
:10383000AF909F908F9008958091A6049091A704D7
:10384000892B61F081E090E02091A8043091A904D7
:10385000232B11F490E080E0892B39F482E090E092
:10386000998388838EEF9FEFDACF42DE882309F4B5
:10387000DFC0F8018181813009F495C0E8F0823021
:1038800099F42091A8043091A904E091A604F09144
:10389000A70490E080E041E050E02817390709F0E4
:1038A000BDC033DA811117C0789481E090E099832C
:1038B000888390E080E0B3CF2091A8043091A904E0
:1038C000E091A604F091A70490E080E041E050E090
:1038D0002817390741F481E090E00E94021380E448
:1038E0000E941013E1CF63817481672B11F0548320
:1038F000438301967396ECCFE091A604F091A70460
:10390000E00FF11F2381348122303105D9F4218960
:1039100032892F3F3F4FB1F42581368140919D027E
:1039200050919E022417350761F5AF014F5E5F4F3E
:103930006091A1027091A20280919F029091A002D9
:103940000E948F26EFEFCE1ADE0AEE0AFE0A0D5E07
:103950001F4F4091A8045091A90470E060E0C41684
:10396000D506E606F7063CF5009731F27894892BE8
:1039700009F49BCF82E090E0998388838DEF9FEFDD
:103980004ECFC114D104E104F104E1F6232BD1F6AA
:10399000CF017FDDE091A604F091A704E00FF11FB5
:1039A000108A1786CFCF10E000E090E080E0C12CB5
:1039B000D12C7601CECF0097C9F610E000E0812C23
:1039C000912C540183E0E82EF12C1AC0E091A6045A
:1039D000F091A704E00FF11F83819481029749F4CD
:1039E000F482E38282E090E00E94021380E40E946D
:1039F0000A13FFEF8F1A9F0AAF0ABF0A0D5E1F4F0F
:103A00008091A8049091A904B0E0A0E088169906DE
:103A1000AA06BB06DCF290E080E0A8CF6381748147
:103A20006230710511F4548343830196739635CF48
:103A300082E090E09983888385EF9FEFF0CE009736
:103A4000B9F48FEFFB0180832091A7023091A80287
:103A500043E1429FC001439F900D1124E091A604D1
:103A6000F091A704E80FF91F8285FB018183089577
:103A70000C94B61288E090E0FA019183808390E084
:103A800080E008951092A5041092A404E6EAF4E000
:103A900086E0DF011D928A95E9F78CEC98E190931E
:103AA000A3048093A20408958091A2049091A3049A
:103AB00008952F923F924F925F926F927F928F92D2
:103AC0009F92AF92BF92CF92DF92EF92FF920F93AD
:103AD0001F93CF93DF93CDB7DEB72F970FB6F89430
:103AE000DEBF0FBECDBFF894E091A404F091A50411
:103AF0003196F093A504E093A40478944090A60432
:103B00005090A7044114510409F40CC2E091A80498
:103B1000F091A904EF2B09F405C22D8749875A8734
:103B20006B877C8798878F831201B12CA12C10E0C2
:103B300000E08091A8049091A904A816B90618F491
:103B40000115110529F1F8948091A4049091A50420
:103B500001979093A5048093A4047894C8012F96AC
:103B60000FB6F894DEBF0FBECDBFDF91CF911F918E
:103B70000F91FF90EF90DF90CF90BF90AF909F900C
:103B80008F907F906F905F904F903F902F9008950F
:103B90007101E418F508D10117968C91179781FDF2
:103BA00054C013968D919C911497039709F04DC0C2
:103BB00015968D919C91EF81F8858E179F0709F0DE
:103BC00044C0B50190E080E07FD48A832091A604B0
:103BD0003091A7043D832C833D85332309F44CC0E9
:103BE0004C815D81452B09F49AC18091A804909184
:103BF000A904A816B90608F092C1C501D0D8882337
:103C0000E9F06C817D816E0D7F1D7D836C83DB010E
:103C10001F968D919C91892B89F0D12CC12CF12C70
:103C2000E12CAC81BD8112968C9112978E151F04E8
:103C300009F094F450961C921E921F972A81222319
:103C400021F0B50190E080E041D43FEFA31AB30A20
:103C500043E1240E311C6DCFAC81BD81ED91FC910F
:103C6000EC0DFD1D858196810FD7BFEFEB1AFB0A86
:103C7000EDE0CE0ED11CD5CFEC81FD81309709F45B
:103C80004EC18091A8049091A904A816B90608F025
:103C900046C1EE0DFF1DFF87EE87C50180D88B83DF
:103CA000882339F1AE85BF851F968D919C915097E1
:103CB000019621E01D964D915C918417950709F0BE
:103CC00020E02E831982712C10E000E0AE85BF85C4
:103CD00012968C91781608F45DC0EE85FF85878575
:103CE00090890196658576850E94F936908B878745
:103CF000A5CFB1E0BE83E6CF992493946BC08BD659
:103D0000F6019683858382C0D601ED90FC90B7E0E2
:103D10006B9EE00CF11C1124F7016381748180819A
:103D20008F3F61F121E030E002C0220F331F8A95FE
:103D3000E2F7C901092E000CAA0BBB0BFB01408165
:103D400051816281738184239523A623B72321E0C7
:103D5000892B8A2B8B2B09F420E0D4012C93D701DB
:103D600011968C91F60123853485820F932F911D36
:103D7000880E991E1486138663949BC0418150E07F
:103D8000C4010E945037EBCF998206EF1FEFC5C0E8
:103D90001982C3C0F981F111A0CFEDE07E9E7001C0
:103DA0001124AE85BF85CD90DC90CE0CDF1C15D4E0
:103DB0009D838C83BB81BB2309F49ECF81E0EE857C
:103DC000FF8527853089232B09F080E0982E8823F2
:103DD00009F458C0672D8E859F8505D8D6011896A1
:103DE0009C938E93179761E070E0C2D4EE85FF85B7
:103DF000218932892F3F320709F481CFBC01C901E3
:103E0000CFD7D60116969C938E931597D60115960B
:103E10008D919C911697009709F4B6CFEC81FD81A6
:103E20008E0F9F1F1A969C938E931997AE85BF8510
:103E3000ED91FC911197EE0EFF1EF7012185328561
:103E4000148613861A968C91870DD9018D93711063
:103E500016C0EE85FF85878184FF11C049855A858C
:103E60006B857C85F9014183528363837483F701F9
:103E7000838594850496A80FB91F14861386F701CD
:103E8000B287A187D60115968D919C911697892BA3
:103E900009F443C0EE85FF852581368180919D021E
:103EA00090919E022817390779F019968D909C9071
:103EB000612CD60112968C911297681608F424CFC3
:103EC0001A969C928E921997BE81BB2309F460CFFB
:103ED00061E070E0F601878190854AD4D60117969B
:103EE000ED90FC90189715964D915C91E1E0F0E013
:103EF000BA81BB2311F0F0E0E0E00C811D819C0150
:103F0000B501882799278E1B9F0B6AD38C01892BBB
:103F100021F0F60185819681B7D57394D7CE0FEF46
:103F20001FEF8CCE10E000E00ECE2F923F924F920A
:103F30005F926F927F928F929F92AF92BF92CF9239
:103F4000DF92EF92FF920F931F93CF93DF938091B5
:103F5000A6049091A70410E000E0892BA9F0C8DA2C
:103F60000AEF1FEF882381F02090A8043090A90465
:103F7000C091A604D091A704D12CC12C10E000E080
:103F80002C143D04A9F47894C801DF91CF911F91BE
:103F90000F91FF90EF90DF90CF90BF90AF909F90E8
:103FA0008F907F906F905F904F903F902F900895EB
:103FB000C6010E94CF16882309F18B819C8103974B
:103FC000E9F48F859889892BC9F0B60190E080E0EB
:103FD0007BD221E030E0882311F030E020E044245F
:103FE0005524421A530AB12CA12C912C812C8A8180
:103FF0008815190409F038F4188A1F864FEFC41A7F
:10400000D40A6396BDCFE881F981EA0DFB1D858155
:104010009681892BA1F161E070E087819085A8D31A
:104020003C01DBD28C01E881F981EA0DFB1D818521
:10403000928525813681200F311FAC01421B530B25
:104040009A0147815085421B530B70E060E00E944B
:104050005937E881F981EA0DFB1DE780F08445813D
:1040600056819301B601C201BBD28C01892B39F074
:10407000E881F981EA0DFB1D8581968105D55FEF09
:10408000851A950A8DE0A80EB11CB1CF31CA78947B
:1040900008952F923F924F925F926F927F929F92DC
:1040A000AF92BF92CF92DF92EF92FF920F931F9346
:1040B000CF93DF9300D000D0CDB7DEB70091A60438
:1040C0001091A704992493940115110509F43EC099
:1040D000A090A804B090A9040BDA982E8823B1F11F
:1040E0001092A7041092A6041092A9041092A8049A
:1040F0001092AA041092AB048FEF9FEFDC01809323
:10410000A7029093A802A093A902B093AA02789460
:104110007FD31E830D83C12CD12C7601C501B0E065
:10412000A0E089839A83AB83BC8322242A94322C17
:1041300089819A81AB81BC81C816D906EA06FB0643
:10414000F4F0C801A1D480E40E941013892D2696B2
:104150000FB6F894DEBF0FBECDBFDF91CF911F9198
:104160000F91FF90EF90DF90CF90BF90AF909F9016
:104170007F906F905F904F903F902F900895AD810A
:10418000BE8115968D919C91169720919D0230913C
:104190009E0282179307D1F451968D919C91EED592
:1041A000ED81FE8180819181B12CA12C412C512C7B
:1041B0003201892B89F5BFEFCB1ADB0AEB0AFB0A28
:1041C000ED81FE817396FE83ED83B2CFC114D104DD
:1041D000E104F10429F7892B19F7ED81FE8181892A
:1041E00092898F3F980709F029D5AD81BE815296FB
:1041F0003C922E925197D4CF8A0D9B1DDC018D915C
:104200009C91009709F040D4BFEF4B1A5B0A6B0AF0
:104210007B0AEDE0AE0EB11CAD81BE818D919C910B
:10422000119712964C9150E070E060E044165506EC
:10423000660677060CF328D4BECFCF93DF93EA014E
:1042400028DF811109C082E090E09983888385EF9F
:104250009FEFDF91CF91089581E090E00E940213DB
:1042600081E090E09983888390E080E0F2CF11DFD5
:104270001092A3041092A204089542E050E068E472
:1042800073E00C942013FF920F931F93CF93DF934F
:104290008A01EC01C60FD71FF980B9D20897F8162A
:1042A000190671F068F082E090E0F8019183808354
:1042B0008EEF9FEFDF91CF911F910F91FF900895A7
:1042C0006C817D818E819F814B810E94B51581110A
:1042D00008C082E090E0F8019183808384EF9FEF33
:1042E000E9CFF9800E94B0154F2D50E0BE01685F04
:1042F0007F4F0E94503789810E941F1681E090E015
:10430000F8019183808390E080E0D4CFDF92EF9238
:10431000FF920F931F93CF93DF938A01EC01C60F97
:10432000D71F0E94B0157C01D98071D2DD2059F0D1
:10433000029721E030E0D816190619F010F030E0AD
:1043400020E0232B79F482E090E0F80191838083D0
:104350008EEF9FEFDF91CF911F910F91FF90EF9024
:10436000DF900895EF2841F482E090E0F801918316
:10437000808384EF9FEFEECFF9800E94B0154F2D20
:1043800050E0BE016E5F7F4F0E94503789810E94CE
:104390001F1681E090E0F8019183808390E080E037
:1043A000D9CF8DE391E29093AD048093AC0408954E
:1043B0008091AC049091AD0408950895FC011182A0
:1043C0001082938382830895DB011D921C92DC018D
:1043D0001296ED91FC9113977183608313967C93F1
:1043E0006E9312970895FC0180819181DB018D937A
:1043F0009C93A081B181109741F08D919C91918304
:104400008083892B11F4F383E2830895FC0180817A
:104410009181DB018D939C93892B11F473836283CB
:10442000718360830895FC011182108293838283DB
:104430000895CF93DF931F921F92CDB7DEB71A82F4
:104440001982F894BE016F5F7F4F83EB94E0CBDF5E
:1044500089819A81009709F017D389819A81892BE4
:1044600089F7BE016F5F7F4F87EB94E0BCDF8981E6
:104470009A81009709F008D389819A81892B89F75D
:1044800078940F900F90DF91CF910895CF93DF93A1
:104490001F921F92CDB7DEB71A821982F894BE011F
:1044A0006F5F7F4F8FEA94E09EDF89819A8100974A
:1044B00009F0EAD289819A81892B89F778940F9043
:1044C0000F90DF91CF91089581E0089590E080E012
:1044D0000895EF92FF920F931F93CF93DF931F9254
:1044E0001F92CDB7DEB71A8219828091AE0407EF12
:1044F0001FEF8823A1F1F894BE016F5F7F4F87EB18
:1045000094E071DF789489819A81EE24E394F12C10
:10451000892B51F4F894BE016F5F7F4F83EB94E0D9
:1045200062DF7894F12CE12C89819A810EEF1FEFE4
:104530000097A9F0FC014281538164E070E076D6D7
:104540008C01892B61F0F89469817A81C701880F09
:10455000991F880F991F8D549B4F58DF7894C8017D
:104560000F900F90DF91CF911F910F91FF90EF90DF
:1045700008950F931F93CF93DF9300D01F92CDB771
:10458000DEB71C821B821A8219828091AE0407EF6B
:104590001FEF8823C1F0AE014D5F5F4F64E070E014
:1045A000CE010196B6D68C01892B69F4E981FA8196
:1045B0008B819C8193838283F89469817A818FEACD
:1045C00094E002DF7894C8010F900F900F900F9045
:1045D000DF91CF911F910F910895BBD70496089555
:1045E0008F929F92AF92BF92CF92DF92EF92FF9203
:1045F0000F931F93CF93DF931F921F92CDB7DEB718
:104600001A821982BC016F5F7F4F6330710598F089
:10461000AA24AA94BA2CC5010F900F90DF91CF91D4
:104620001F910F91FF90EF90DF90CF90BF90AF90D0
:104630009F908F9008954115510551F348015901FC
:104640008A016C01CADF8815990511F7E114F1049C
:10465000F9F28E0D9F1DA816B906D0F28091AE0416
:104660008823F1F0F894B501645071099701AE0107
:104670004F5F5F4FC8010496E1D65C01892B71F44E
:1046800089819A81F80193838283C601880F991FDB
:10469000880F991FB8018D549B4F96DE7894BBCF3D
:1046A00087EFA82EBB24BA94B6CFAF92BF92CF9219
:1046B000DF92EF92FF920F931F93CF93DF931F929E
:1046C0001F92CDB7DEB71A821982892B09F047C035
:1046D0006115710509F443C04115510509F43FC046
:1046E0002115310509F43BC001151105C1F1809177
:1046F000AE048823B9F179016A015B01F894BE0127
:104700006F5F7F4F8FEA94E06EDE789489819A81A3
:10471000009759F1DC0112966D917C91A8010496E5
:10472000A6D68C01E981FA81D501ED93FC938281B3
:1047300093810496F601918380834FDFD7018D9397
:104740009C93C8010F900F90DF91CF911F910F9113
:10475000FF90EF90DF90CF90BF90AF9008950FEF54
:104760001FEFEFCF07EF1FEFECCF0EEF1FEFE9CFFB
:10477000CF93DF93EC01672B71F4F4D68C179D0770
:1047800060F0E7D62496C80FD91FE6D68C0F9D1F80
:10479000DF91CF910895E3D6F1CF90E080E0F8CF9C
:1047A0000F931F93CF93DF932091AE0421112BC061
:1047B0008B01EC0183EB94E001DE87EB94E0FEDDFE
:1047C0008FEA94E0FBDD97D00097C1F4CBD670E080
:1047D00060E0CEDF4BEA52E062E070E081D100970A
:1047E00069F48091AB029091AC02CED6B801CE01B3
:1047F00003D5009719F421E02093AE04DF91CF9107
:104800001F910F91089584EF9FEFF8CFA8C6AAC615
:10481000CF93DF93AAD6EC01892B11F40ADE36DEA2
:10482000CE01DF91CF910895CF93DF939ED6EC0117
:10483000892B09F4FEDDCE01DF91CF91089580919F
:10484000AB029091AC020895CF93DF938091AE04B8
:10485000D0E0C0E08823D1F09CD6EC01892BB1F4E4
:10486000E8DD14DE8091AB029091AC02E7D1E8D292
:10487000EC01892B59F483EB94E0D5DD87EB94E0D0
:10488000D2DD8FEA94E0CFDD1092AE04CE01DF914D
:10489000CF910895EF92FF920F931F93CF93DF93E1
:1048A000EC017A018B010F5F1F4F0E9DA0010F9D40
:1048B000500D1E9D500D112470E060E00E9459378C
:1048C00090E080E0F0E0E0E02FEFE816F90639F440
:1048D000DF91CF911F910F91FF90EF9008951A8271
:1048E00019822883309711F0D283C1830196FE018B
:1048F000C00FD11FEACFCF92DF92EF92FF920F93BA
:104900001F93CF93DF9304E017E00C7F43E050E068
:104910006DEA72E083EB92E01CD48DEAE82E82E02F
:10492000F82E93EBC92E92E0D92ECBECD7E0D7012D
:104930004D915D917D01F601619171916F01198336
:1049400008835D834C835B834A837F836E839B01F3
:104950002F5F3F4F249FC001259F900D349F900DE6
:104960001124998788870115110511F0C80192DF7C
:1049700088859985080F191F2A96F3EBEF16F2E048
:10498000FF06A9F6EDEBF4E084E492E0DF019C0180
:104990001D9221503040E1F71092BC041092BB04EC
:1049A0001092EA071092E9071092EE071092ED07B5
:1049B0001092EC071092EB071092F0071092EF079D
:1049C0001092F2071092F1071092F4071092F30779
:1049D0001092F8071092F7071092F6071092F50759
:1049E0001092FA071092F9071092FC071092FB0739
:1049F0001092C8071092C7071092CA071092C907F1
:104A000090E080E0DF91CF911F910F91FF90EF90A8
:104A1000DF90CF9008950097F1F0F894A3EBB2E007
:104A2000EBECF7E030E020E04D915D91481759073D
:104A3000A8F0428153814115510581F08AE0829F9F
:104A4000F001839FF00D1124E553F84F808191818F
:104A5000009759F4789490E080E008952F5F3F4FDD
:104A60003A962330310501F7F5CFDC0111966D91AF
:104A70007C91718360834150510953834283FC01CF
:104A80002193CF0178940895009749F1DC018E912C
:104A9000853041F4E091C907F091CA073097F9F0E9
:104AA000CD0119948530D8F4282F30E0F8948FEF99
:104AB0008C938AE0829FF001839FF00D1124E553CF
:104AC000F84F8081918112969C938E931197B183B8
:104AD000A083828193810196938382837894089541
:104AE000CF92DF92EF92FF920F931F93CF93DF93BA
:104AF0009C0180EC94E08C7F4115510509F49BC02A
:104B00002115310509F497C06115710509F493C0A9
:104B10007A01AB01B9016D5F7F4F6C7F9B012F5F05
:104B20003F4F249F8001259F100D349F100D1124AD
:104B3000F8942091E9073091EA07232B59F420914A
:104B4000F1073091F2072115310569F1201731077E
:104B500008F058C02091F3073091F407232B91F40B
:104B60002091F1073091F207820F931F2091FB07EC
:104B70003091FC072115310509F441C02017310798
:104B800008F056C07894CFEFDFEF86EF9FEFF70184
:104B9000D183C083DF91CF911F910F91FF90EF9050
:104BA000DF90CF900895C3E0D0E0C090BB04D090D8
:104BB000BC0421E432E02C193D092017310710F321
:104BC0002AE02C9FF0012D9FF00D1124E553F84FA2
:104BD00091838083558344835383428377836683A1
:104BE00011870087009709F055DE0C0D1D1D1093ED
:104BF000BC040093BB04789490E080E0C8CFC4E08C
:104C0000D0E0D3CFC3E0D0E02AE02C9FF0012D9F6D
:104C1000F00D1124E553F84F91838083558344832D
:104C20005383428377836683009729F333DEE3CF90
:104C3000C4E0D0E0E9CF8FEF9FEFACCF9C010397AA
:104C4000029708F069C0F89484E09AE0482F50E099
:104C5000241735070CF44DC091E08AE0829FF001E3
:104C6000839FF00D1124E553F84F118210821582B5
:104C7000148213821282178216829923B1F18091D5
:104C8000E9079091EA07892BA9F42091F107309167
:104C9000F2072115310571F08091BB049091BC049D
:104CA000821B930B9093BC048093BB041092F20779
:104CB0001092F1078091F3079091F407892BA9F4E2
:104CC0002091FB073091FC072115310571F080918F
:104CD000BB049091BC04821B930B9093BC04809303
:104CE000BB041092FC071092FB07789490E080E0E0
:104CF0000895949FF001959FF00D1124E553F84F0E
:104D000040815181452B31F440855185452B11F46B
:104D100081509CCF90E0A1CF8FEF9FEF0895411578
:104D2000510549F1009739F16115710521F1F894A8
:104D30002091C7073091C807232BB9F42091C907E8
:104D40003091CA07232B89F49093C8078093C70733
:104D50007093CA076093C907789425E030E090E02B
:104D600080E0FA0131832083089578942FEF3FEF9C
:104D700086EF9FEFF6CF8FEF9FEF0895059769F4C9
:104D8000F8941092C8071092C7071092CA071092A1
:104D9000C907789490E080E008958FEF9FEF089521
:104DA0006115710519F4F0E0E0E011C0853091055E
:104DB00081F4E091C707F091C8073097A1F3CB01C8
:104DC00001961995009779F3FC0185E08193CF0155
:104DD00008959C01235031092230310520F72AE043
:104DE000289FD001299FB00D1124A553B84F2D91B4
:104DF0003C911197232BB9F216962D913C91179760
:104E00002617370780F2F89412962D913C9113974C
:104E10002115310529F0ED91FC911197309711F48E
:104E20007894C1CF4181528111965C934E93215069
:104E3000310913963C932E93129781937894C7CFA0
:104E4000E1E0F7E086ECDF011D928A95E9F7EDEBF2
:104E5000F4E084E492E0DF019C011D922150304097
:104E6000E1F71092BC041092BB04EBECF7E082E394
:104E7000DF011D928A95E9F7E7ECF7E084E0DF01B6
:104E80001D928A95E9F790E080E00895CF93DF9333
:104E9000C091B902D091BA02CF3FDC0759F45FD478
:104EA0009093BA028093B90297FF09C0D093BA02D7
:104EB000C093B90284EF9FEFDF91CF91089590E006
:104EC00080E0FACF8230910528F48093FD0790E0CE
:104ED00080E008958FEF9FEF08954F925F926F9259
:104EE0007F92AF92BF92CF92DF92EF92FF920F9399
:104EF0001F93CF93DF931F921F92CDB7DEB71A8215
:104F00001982009709F479C06115710509F475C01B
:104F10002091B9023091BA0207EF1FEF2F3F3F4FA8
:104F200009F445C06B015C01412C512C3201F12C7C
:104F3000E12C10E000E09E012F5F3F4FA6014E19CB
:104F40005F09B5016E0D7F1D8091B9029091BA0283
:104F500065D4892B09F04BC089819A81009741F46F
:104F6000E114F10429F42091FD07222309F442C041
:104F7000E80EF91EEC14FD04D0F480E8481684E82D
:104F800058068EE16806710420F560E070E0CB0100
:104F90000E9436312AE0420E511C611C711C0A3FEE
:104FA0004FEF140721F0043F8FEF1807A1F4C80159
:104FB0000F900F90DF91CF911F910F91FF90EF9085
:104FC000DF90CF90BF90AF907F906F905F904F90A9
:104FD000089501EF1FEF81E090E0013F2FEF1207EE
:104FE00011F090E080E0892B09F4A5CFE0CF04EF29
:104FF0001FEFDDCF0AEF1FEFDACF0FEF1FEFD7CF95
:105000004F925F926F927F92AF92BF92CF92DF9258
:10501000EF92FF920F931F93CF93DF931F921F92F4
:10502000CDB7DEB71A821982009709F479C06115ED
:10503000710509F475C02091B9023091BA0207EFE9
:105040001FEF2F3F3F4F09F445C06B015C01412C1E
:10505000512C3201F12CE12C10E000E09E012F5F79
:105060003F4FA6014E195F09B5016E0D7F1D80915E
:10507000B9029091BA0288D3892B09F04BC089817B
:105080009A81009741F4E114F10429F42091FD077D
:10509000222309F442C0E80EF91EEC14FD04D0F4FA
:1050A00080E4481682E458068FE06806710420F513
:1050B00060E070E0CB010E9436312AE0420E511CC4
:1050C000611C711C0E3F4FEF140721F0043F8FEF5E
:1050D0001807A1F4C8010F900F90DF91CF911F9195
:1050E0000F91FF90EF90DF90CF90BF90AF907F90A7
:1050F0006F905F904F90089502EF1FEF81E090E076
:10510000023F2FEF120711F090E080E0892B09F4A5
:10511000A5CFE0CF04EF1FEFDDCF0EEF1FEFDACF0B
:105120000FEF1FEFD7CF8091B9029091BA028F3F56
:10513000980749F00CD3892B49F48FEF9FEF909398
:10514000BA028093B90290E080E0089584EF9FEF67
:105150000895CF92DF92EF92FF920F931F93CF9318
:10516000DF9321E04115510509F020E0415051093C
:1051700021112CC0DC01FB01D12CC12C21E022C06B
:105180003FEFC31AD30A7D010D911D91E701EA801B
:10519000FB80E016F106A8F420813181E280F380E3
:1051A000F182E08233832283ED90FC9011979D0180
:1051B00022503109E901F982E88211961C930E937D
:1051C00020E03296C416D506D8F2D2CFDF91CF9127
:1051D0001F910F91FF90EF90DF90CF900895FC0109
:1051E000680F791F90E080E0E617F70709F408954B
:1051F0002191820F911DF8CF2091FE07211113C03C
:1052000045DE009791F41092040810920308109262
:10521000020810920108109200081092FF0721E086
:105220002093FE07089584EF9FEF0895AF92BF92F9
:10523000CF92DF92EF92FF920F931F93CF93DF9362
:10524000009709F460C04630510508F45CC0209115
:10525000FE07C7EFDFEF222309F449C08C01060FD8
:10526000171FF801C080D180C114D10409F44EC0C9
:1052700096012A5F3F4F4217530708F447C07C014D
:10528000809103089091040893838283B6016C5F38
:105290007F4F5801A60EB71EC801A1DFF50191830B
:1052A000808364E070E0C80118DEEC01892BF9F41A
:1052B00081E090E007DEB601C80104960EDEEC0145
:1052C000892B91F462E070E0C50107DEEC01892BC7
:1052D00059F4C701D9DB8091030890910408019625
:1052E000909304088093030890E080E0EBDDCE010A
:1052F000DF91CF911F910F91FF90EF90DF90CF90B2
:10530000BF90AF900895CFEFDFEFF1CFC9EFDFEFA0
:10531000EECF6F927F928F929F92AF92BF92CF9279
:10532000DF92EF92FF920F931F93CF93DF9300D002
:105330001F92CDB7DEB7009709F47AC04115510529
:1053400009F476C02091FE0707EF1FEF222309F42E
:105350004DC03A017B015C0164E070E0CE01019632
:105360004FDE8C01892B09F041C009811A8101159A
:10537000110509F45AC0480186E0880E911CB70156
:10538000680D791D8091BB029091BC0209DD6C0112
:10539000009709F450C0A70170E060E00E945937FF
:1053A00089819A81AB81BC81EC0CFD1CF701819352
:1053B0009193A193B1937F0181E090E083DDB801E7
:1053C000C7011EDE892B31F562E070E0C701800F56
:1053D000911F16DE8C01892BE9F490E080E072DDEC
:1053E000F501D182C082F30191828082C8010F90C1
:1053F0000F900F900F90DF91CF911F910F91FF9021
:10540000EF90DF90CF90BF90AF909F908F907F9064
:105410006F90089590E080E055DDF50111821082D3
:10542000F30111821082C6012FDB09EF1FEFDECFDF
:105430000FEF1FEFDBCF06EF1FEFD8CF0097A1F0E4
:105440004115510589F02115310571F0F9013696A4
:105450006E177F0748F0DC012D933C93DA01ED9342
:10546000FC9390E080E008958FEF9FEF0895AF9256
:10547000BF92CF92DF92EF92FF920F931F93CF9341
:10548000DF93009709F45FC04115510509F45BC033
:105490006530710508F457C02091FE07C7EFDFEFB4
:1054A000222391F1DC01CD90DC9011971296ED91C1
:1054B000FC9196012A5F3F4FC9EFDFEF26173707B0
:1054C00019F5C091FF07D0910008209749F521E018
:1054D00030E0309300082093FF077A018C01F093AD
:1054E0000208E09301085601B4E0AB0EB11CB5010F
:1054F00076DE0A0D1B1DF80120813181821793078A
:1055000029F5D701CD92DC92CE01DF91CF911F9189
:105510000F91FF90EF90DF90CF90BF90AF900895E4
:1055200020910108309102082F5F3F4FCCEFDFEF51
:10553000E217F30790F2CBEFDFEF2E173F0768F289
:10554000D0E0C0E0CACFCFEFDFEFDECFC3EFDFEFB9
:10555000DBCF84E090E0089582E090E008958CEF46
:105560009FEF089580E290E0089510920408109251
:10557000030810920208109201081092000810927D
:10558000FF0790E080E008959093BC028093BB02F7
:1055900008958091FE07882391F0C5DD009789F476
:1055A0001092040810920308109202081092010849
:1055B000109200081092FF071092FE07089590E0E5
:1055C00080E00895009749F06115710531F0FC0104
:1055D00011821082FB01118210820895F3CF26E020
:1055E00030E040E855E260E070E090E080E000C02C
:1055F00010920608109205088930910508F03BC00A
:10560000FC018827E95FF44D8F4F0C942F37102B46
:105610001A2B232B2C2B352B3C2B3F2B422B482B8F
:1056200081E090E0909306088093050884E198E07B
:105630000C943B3482E090E0909306088093050838
:1056400081EB98E0F5CF84E090E09093060880939A
:1056500005088EE499E0ECCF88E090E0909306088E
:10566000809305088BEE99E0E3CF80E190E0909382
:10567000060880930508089580E290E0F8CF80E462
:1056800090E0F5CF80E890E09093060880930508BD
:1056900080910508909106089160E9CF1F920F92C2
:1056A0000FB60F9211240BB60F922F933F934F9387
:1056B0005F936F937F938F939F93AF93BF93EF937A
:1056C000FF938FE89DEF9093250180932401BAD03A
:1056D000FF91EF91BF91AF919F918F917F916F91CA
:1056E0005F914F913F912F910F900BBE0F900FBE86
:1056F0000F901F9018958FE89DEF90932501809350
:105700002401A3E7B0E08C918E7F8C93E0E2F1E07E
:1057100080818C7F8083E1E2F1E08081877E8083DD
:1057200080818460808380818C7F80838C91816084
:105730008C930895E3E7F0E0808190819E7F9083D1
:105740008170089581E0089510920708089568EE29
:1057500073E080E090E08AD590E080E0089526E054
:1057600030E040E052EC61E070E090E080E040DF4B
:1057700084E198E0B6D7892B21F084E198E0CBD77B
:10578000F7CF90E080E00895CF92DF92EF92FF9202
:105790000F931F93CF93DF936B017A01E901198275
:1057A000188284E198E09DD7892B69F18601CC2489
:1057B000C39482E0D82E80910708811110C084E143
:1057C00098E0A9D70297B9F7C0920708F801D192DB
:1057D0008F0188819981019699838883ECCF888194
:1057E00099818E159F0578F484E198E094D78F3FD6
:1057F0009807A9F3F80181938F0188819981019617
:1058000099838883ECCF90E080E0DF91CF911F9166
:105810000F91FF90EF90DF90CF9008950F931F931B
:10582000CF93DF93EA01890184E198E00E94CB36AF
:10583000F801D183C08390E080E0DF91CF911F9188
:105840000F910895CF92DF92EF92FF928091080816
:1058500091E0980F90930808882369F021E030E0E8
:1058600030930A082093090880930808FF90EF906E
:10587000DF90CF9008957894E091CE02F091CF021E
:10588000C28CD38CE48CF58C0E945C06B701A60117
:1058900090E080E00E94CD05F89480910808815046
:1058A000E3CF0F931F93CF93DF9310920F0B1092C0
:1058B0000E0B12D594DEC091CE02D091CF02198288
:1058C00018826FEF7FEFCB010E94510670E060E01D
:1058D00090E080E00E94CD04009709F03AC00E9459
:1058E000B60AF89478948A819B81BC01685F7F4FE7
:1058F0000E94D004892B59F46FEF7FEFCB010E94F7
:1059000062050E944B06882311F081E08EA3F89473
:10591000F2DE0E944E06882311F080E008C00E944B
:105920004B068111FACF81E09EA19111F6CF8093B1
:105930000E0B78940E94FD128C01789480910E0BCE
:1059400081110CC00E94DA0B0E942F06F89490E09F
:1059500080E0DF91CF911F910F9108950E942D0655
:105960000E944E068823D9F081E080930F0B90911E
:105970000F0B81E0911180E080930E0B80910F0B53
:105980008111D8DE0130110529F40E94FD12892B06
:1059900009F4DADE0E94FD128C01D4DECFCF0E9422
:1059A0004B068111E1CF81E09EA19111DECF80E015
:1059B000DCCF5058BB27AA270ED075C166D130F076
:1059C0006BD120F031F49F3F11F41EF45BC10EF453
:1059D000E095E7FB51C1E92F77D180F3BA17620751
:1059E00073078407950718F071F49EF58FC10EF4C4
:1059F000E0950B2EBA2FA02D0B01B90190010C01DF
:105A0000CA01A0011124FF27591B99F0593F50F4F6
:105A1000503E68F11A16F040A22F232F342F44274E
:105A2000585FF3CF469537952795A795F040539546
:105A3000C9F77EF41F16BA0B620B730B840BBAF016
:105A40009150A1F0FF0FBB1F661F771F881FC2F781
:105A50000EC0BA0F621F731F841F48F48795779595
:105A60006795B795F7959E3F08F0B3CF9395880F4C
:105A700008F09927EE0F979587950895D9D008F4E7
:105A800081E008950CD00FC107D140F0FED030F076
:105A900021F45F3F19F0F0C0511139C1F3C014D1A6
:105AA00098F39923C9F35523B1F3951B550BBB27E5
:105AB000AA2762177307840738F09F5F5F4F220F92
:105AC000331F441FAA1FA9F333D00E2E3AF0E0E88B
:105AD00030D091505040E695001CCAF729D0FE2FD7
