:10000000F8C0000027C1000025C1000023C1000086
:1000100021C100001FC100001DC100001BC1000064
:1000200019C1000017C1000015C1000013C1000074
:1000300011C100000FC100000DC100000BC1000084
:1000400009C1000007C1000005C1000003C1000094
:1000500001C10000FFC00000FDC000000C94EA29AF
:10006000F9C000000C94BE2D0C94F42DF3C00000D8
:10007000F1C00000EFC00000EDC00000EBC00000C8
:10008000E9C00000E7C00000E5C00000E3C00000D8
:100090000C944A2E0C94802EDDC00000DBC00000C2
:1000A000D9C00000D7C00000D5C00000D3C00000F8
:1000B000D1C00000CFC00000CDC00000CBC0000008
:1000C000C9C00000C7C000000C9411270C94D62EA4
:1000D0000C940C2FBFC000000C94622F0C94982F2E
:1000E000B9C0000000000A0B02090C0D0E0807033E
:1000F00004010000000000000000000000000000FB
:1001000000000000000000000000000000000000EF
:1001100012111000000000000000000000000000AC
:100120000000000000000000000001021020200874
:100130000810204010204080020102010804020142
:1001400001020408102040808040201008040201B1
:10015000800402018040201008040201080402010A
:100160000102040810204080010204081020408091
:1001700005050505070508080808020202020A0A23
:100180000808040404040101010101010101030341
:10019000030303030303040707070C0C0C0C0C0CEC
:1001A0000C0C0202020206060606060606060B0BE9
:1001B0000B0B0B0B0B0B00002200250028002B0063
:1001C0002E003100340002010000050108010B017E
:1001D00000002100240027002A002D0030003300F9
:1001E00001010000040107010A011D2EA92E352F6F
:1001F000C12F11241FBECFEFD1E2DEBFCDBF00E083
:100200000CBF12E0A0E0B2E0E8E2F1E600E00BBFD4
:1002100002C007900D92A23FB107D9F729E0A2EFE3
:10022000B2E001C01D92A734B207E1F710E0C9EFB8
:10023000D0E000E006C021970109802FFE010E9456
:100240006130C53FD10780E00807A9F70E94142854
:100250000C949230D5CE611102C00C942B2C6130DD
:10026000E1F362E0FACF662319F061E00C94672CA9
:1002700060E0FCCFCF93282F8823E1F0CB01BA01B7
:10028000CFEFC20FEC2FF0E0EE50FD4F2081213078
:1002900059F490580E94A5289B01AC016C2F70E086
:1002A00090E080E0CF91A2C00E94A0288C2FCF9137
:1002B0000C94F12ACF9108950F931F938B019C0109
:1002C00083E036952795179507958A95D1F7085CB1
:1002D0001C4F462F477021E030E0F90102C0EE0FBD
:1002E000FF1F4A95E2F7AF01F80120812423CB01DB
:1002F0000196211102C090E080E01F910F910895B6
:100300000F931F938B019C0183E0369527951795DA
:1003100007958A95D1F7677081E090E001C0880F5A
:100320006A95EAF7F801E85CFC4F2081452B31F42F
:100330008095822380831F910F910895822BFACF9D
:100340004F925F926F927F928F929F92AF92BF92E5
:10035000CF92DF92EF92FF920F931F93CF93DF9391
:100360004B015C0129013A01670161E0882D0E947F
:100370002B2CE4012196AE01C501B401C1DF20E0C0
:1003800030E0A901C801B6010E945B2918168CF45F
:10039000F401EE50FD4F81E08083C801B6010E9458
:1003A000A5286B01C301B2010E94A528A601C401C2
:1003B00021D0CE01DF91CF911F910F91FF90EF904F
:1003C000DF90CF90BF90AF909F908F907F906F9075
:1003D0005F904F900895882341F08150682F70E01E
:1003E00090E080E050E040E08BCF0895862FB90187
:1003F0000C94F12A9C01FC01EC51FF4FE491E15077
:10040000E231E0F4F0E08827E75FFD4F8F4F0C9476
:1004100061301B02220225023C0251021E026602CA
:10042000720276028D02A202B702CE02E3021E021F
:10043000F8020F03240384B5806884BD60E0822F36
:100440000C94672C84B58062F8CF809180008C7FFB
:1004500082608093800080918100807E8061682B23
:1004600060938100509387004093860080918000C4
:10047000806880938000E2CF809180008C7F8260D2
:100480008093800080918100807E8061682B6093E2
:1004900081005093870040938600809180008062A5
:1004A000E8CF809180008C7F826080938000809173
:1004B0008100807E8061682B60938100509387006B
:1004C00040938600809180008860D3CF8091B000F7
:1004D00080688093B0008091B100887F682B609322
:1004E000B100ACCF8091B0008062F3CF80919000DA
:1004F0008C7F82608093900080919100807E8061EB
:10050000682B6093910050939700409396008091E0
:10051000900080688093900091CF809190008C7FB4
:1005200082608093900080919100807E8061682B32
:1005300060939100509397004093960080919000B3
:100540008062E8CF809190008C7F826080939000E1
:1005500080919100807E8061682B60939100509320
:10056000970040939600809190008860D3CF80914F
:10057000A0008C7F82608093A0008091A100807E8B
:100580008061682B6093A1005093A7004093A60060
:100590008091A00080688093A00050CF8091A0003F
:1005A0008C7F82608093A0008091A100807E80611A
:1005B000682B6093A1005093A7004093A600809100
:1005C000A0008062E8CF8091A0008C7F8260809341
:1005D000A0008091A100807E8061682B6093A100C3
:1005E0005093A7004093A6008091A0008860D3CFCD
:1005F000809120018C7F8260809320018091210175
:10060000807E8061682B6093210150932701409385
:100610002601809120018068809320010FCF809176
:1006200020018C7F82608093200180912101807E57
:100630008061682B6093210150932701409326012C
:10064000809120018062E8CF809120018C7F8260C0
:100650008093200180912101807E8061682B6093CE
:100660002101509327014093260180912001886049
:10067000D3CF90E080E008950F931F93009709F483
:1006800088C06115710509F484C000913002109191
:10069000310220913202309133020E3F1F4F2F4F13
:1006A0003F4F09F068C0DB014D915D916D917C91E8
:1006B00040933002509331026093320270933302C0
:1006C00040913002509131026091320270913302B8
:1006D000DC011296ED91FC9180819181A281B38120
:1006E0008093B3039093B403A093B503B093B60380
:1006F00084819581A681B7818093AF039093B003E5
:10070000A093B103B093B20380859185A285B38590
:100710008093AB039093AC03A093AD03B093AE036F
:1007200084859585A685B7858093A7039093A803B4
:10073000A093A903B093AA031092A3031092A40359
:100740001092A5031092A60315D78FED9AE090930F
:100750004203809341039093440380934303F9D56C
:10076000009731F421E030E03093B8032093B703D1
:100770001F910F9108950091300210913102209144
:10078000320230913302FB010083118322833383D1
:1007900097CF8FEF9FEFECCF8F929F92AF92BF9248
:1007A000CF92DF92EF92FF921F93CF93DF934B0193
:1007B0005C011091BA0382E090E09093B8038093BB
:1007C000B70381149104A104B10441F48091BA03E8
:1007D000811104C08091B903C1E08111C0E0C12C36
:1007E000D12C76018091BA03811106C08091B903A2
:1007F000811102C0CC23D9F083E090E09093B8033C
:100800008093B703CC2379F1CCE9DFEF111102C05B
:100810000E94430ECE01DF91CF911F91FF90EF9088
:10082000DF90CF90BF90AF909F908F9008956AE037
:1008300070E080E090E00E94592A80E1C80E87E2D3
:10084000D81EE11CF11C8FEF88169806A806B80682
:1008500031F0C1E08C149D04AE04BF0408F0C0E088
:1008600080E0ABD5BFCFD0E0C0E0D0CFCF92DF9259
:10087000EF92FF920F931F93CF93DF938F3F9105DA
:1008800011F008F050C02091B7033091B803233025
:10089000310539F02091B7033091B803213031058B
:1008A00031F424E030E03093B8032093B7036A01B9
:1008B0007B01EC0182309105A0F011E0AE01C7018F
:1008C000B60146D5AB01BC01CE011123F9F0DF9191
:1008D000CF911F910F91FF90EF90DF90CF900C94EC
:1008E00068108C01000F111F0F5B1C4FD8018D91F8
:1008F0009C91892B11F30E9472100297F1F6D80196
:10090000ED91FC91CE011995182FD8CF0E948A1035
:1009100090E080E0DF91CF911F910F91FF90EF90D9
:10092000DF90CF9008958FEF9FEFF4CF80E045C523
:10093000CF93DF9386E090E09093B8038093B70362
:1009400095D5EC01E1E4F3E084E0DF011D928A95A6
:10095000E9F70E94DB0D1092B8031092B703CE01A5
:10096000DF91CF9108958091B90308958091A203FA
:100970000895609330027093310280933202909315
:10098000330290E080E008958F929F92AF92BF92E1
:10099000CF92DF92EF92FF920F931F93CF93DF934B
:1009A0000091080210910902D0910A02C0910B0235
:1009B000C801AD2FBC2F8093FB089093FC08A09337
:1009C000FD08B093FE0880910C0290910D02A09159
:1009D0000E02B0910F028093FF0890930009A0933C
:1009E0000109B0930209C0901002D0901102E0906A
:1009F0001202F0901302A7019601B8018D2F9C2FCF
:100A00000E945B291816A4F0C0901402D090150221
:100A1000E0901602F0901702A7019601B8018D2F01
:100A20009C2F0E949C2887FD03C06801ED2EFC2EA0
:100A3000E894F7F8C0920309D0920409E0920509FE
:100A4000F092060963E070E080E090E035DCEC01B4
:100A50009093440980934309C0900309D0900409FE
:100A6000E0900509F090060920E030E04FE753E4FC
:100A7000C701B6010E949C2818160CF47DC120E025
:100A800030E0A901C701B6010E945B2987FF03C0BE
:100A9000C12CD12C7601B701A601CE01EBDBC090B1
:100AA000FB08D090FC08E090FD08F090FE088090D4
:100AB000180290901902A0901A02B0901B02A50192
:100AC0009401C701B6010E945B2918160CF05BC1A6
:100AD0008092070990920809A0920909B0920A0928
:100AE00064E070E080E090E0E7DBEC0190933C098B
:100AF00080933B09C0900709D0900809E09009094C
:100B0000F0900A0920E030E04FE753E4C701B60156
:100B10000E949C2818160CF44FC120E030E0A90177
:100B2000C701B6010E945B2987FF03C0C12CD12CED
:100B30007601B701A601CE019DDB0091FF0810915F
:100B40000009D0910109C0910209C0902002D09003
:100B50002102E0902202F0902302A7019601B80141
:100B60008D2F9C2F0E945B291816A4F0C0902402A0
:100B7000D0902502E0902602F0902702A70196016E
:100B8000B8018D2F9C2F0E949C2887FD03C068010F
:100B9000ED2EFC2EE894F7F8C0920B09D0920C09C8
:100BA000E0920D09F0920E0962E070E080E090E0C2
:100BB00083DBEC019093340980933309C0900B09D7
:100BC000D0900C09E0900D09F0900E0920E030E083
:100BD0004FE753E4C701B6010E949C2818160CF495
:100BE000F2C020E030E0A901C701B6010E945B29F4
:100BF00087FF03C0C12CD12C7601B701A601CE011D
:100C000039DBC090FF08D0900009E0900109F09016
:100C100002098090280290902902A0902A02B090A8
:100C20002B02A5019401C701B6010E945B29181689
:100C30000CF0D0C080920F0990921009A092110977
:100C4000B092120965E070E080E090E035DBEC01E5
:100C500090932C0980932B09C0900F09D090100914
:100C6000E0901109F090120920E030E04FE753E4E2
:100C7000C701B6010E949C2818160CF4C4C020E0DD
:100C800030E0A901C701B6010E945B2987FF03C0BC
:100C9000C12CD12C7601B701A601CE01EBDAC1E05F
:100CA0002091000230910102409102025091030212
:100CB0006091FB087091FC088091FD089091FE08FE
:100CC0000E949C28811101C0C0E0C09313096C2FC1
:100CD00081E3C9DAC1E0209104023091050240911C
:100CE0000602509107026091FF08709100098091FF
:100CF0000109909102090E949C28811101C0C0E065
:100D0000C09314096C2F80E3AEDA6091790370917F
:100D10007A0380917B0390917C036F5F7F4F8F4FAD
:100D20009F4F6093790370937A0380937B03909332
:100D30007C030E94D1289B01AC0160917D037091DE
:100D40007E0380917F03909180030E945F296093CE
:100D50007503709376038093770390937803DF9104
:100D6000CF911F910F91FF90EF90DF90CF90BF90A8
:100D7000AF909F908F900895C12CD12C3FE7E32E28
:100D800033E4F32E88CE80901C0290901D02A09038
:100D90001E02B0901F02A5019401C701B6010E9476
:100DA0009C2887FD95CEC0920709D0920809E09251
:100DB0000909F0920A0994CEC12CD12C2FE7E22E1A
:100DC00023E4F22EB6CEC12CD12C9FE7E92E93E47A
:100DD000F92E13CF80902C0290902D02A0902E021D
:100DE000B0902F02A5019401C701B6010E949C2872
:100DF00087FD20CFC0920F09D0921009E09211090F
:100E0000F09212091FCFC12CD12C8FE7E82E83E47A
:100E1000F82E41CF8F929F92AF92BF92DF92EF92C6
:100E2000FF920F931F93CF93DF93EFE5F3E080E002
:100E300090E0A0E8BFEB82A393A3A4A3B5A38DEC9D
:100E40009CECACE4BEE3868F978FA0A3B1A38EEF9A
:100E500097E6ACE4B7EB84839583A683B78385EBF1
:100E60009BE5AEEFB3EF80879187A287B3878CEACB
:100E700096E0ABEAB5E284879587A687B78788E7CF
:100E800094E3ACE4B4E8808B918BA28BB38BA3E5A5
:100E9000B3E0B383A283E5E4F3E01196FC93EE9311
:100EA00089E592E091838083938382839583848311
:100EB00097838683918780879387828795878487A6
:100EC00083E793E015969C938E93149783E693E0C3
:100ED00013969C938E9312974FEF5FEFBA0118967B
:100EE0004D935D936D937C931B97C5E1D9E018A654
:100EF000812C912C5401839489A69AA6ABA6BCA6FA
:100F0000E12CF12C8701A801970163E070E080E0FB
:100F100090E016DA9FA78EA7DD24D394DDA618A251
:100F200089A29AA2ABA2BCA2A801970164E070E0DA
:100F300080E090E005DA9FA38EA3DDA2188E898E53
:100F40009A8EAB8EBC8EA801970162E070E080E0C3
:100F500090E0F6D99F8F8E8FDD8E188A898A9A8AC3
:100F6000AB8ABC8AA801970165E070E080E090E060
:100F7000E7D99F8B8E8BDD8A188689869A86AB8609
:100F8000BC8661E081E367D9DD86188289829A8216
:100F9000AB82BC8261E080E35ED9DD82DF91CF91DC
:100FA0001F910F91FF90EF90DF90BF90AF909F90B7
:100FB0008F90089580913D0981112AC081E080932E
:100FC0003D0980913E0990913F09A0914009B0915F
:100FD00041090197A105B105D9F4809142098823FF
:100FE000B9F063E070E080E090E066D99093440946
:100FF0008093430940E050E0BA013CD963E070E0DF
:1010000080E090E059D99093440980934309E3D953
:101010008091350981112AC081E080933509809142
:10102000360990913709A0913809B0913909019793
:10103000A105B105D9F480913A098823B9F064E09B
:1010400070E080E090E038D990933C0980933B09B0
:1010500040E050E0BA010ED964E070E080E090E03A
:101060002BD990933C0980933B09B5D980912D09E8
:1010700081112AC081E080932D0980912E099091E1
:101080002F09A0913009B09131090197A105B1054F
:10109000D9F4809132098823B9F062E070E080E0F1
:1010A00090E00AD9909334098093330940E050E0EE
:1010B000BA01E0D862E070E080E090E0FDD8909363
:1010C00034098093330987D98091250981112AC079
:1010D00081E0809325098091260990912709A091AC
:1010E0002809B09129090197A105B105D9F480918A
:1010F0002A098823B9F065E070E080E090E0DCD850
:1011000090932C0980932B0940E050E0BA01B2D8AB
:1011100065E070E080E090E0CFD890932C09809358
:101120002B0959D980911D09811103C081E0809359
:101130001D0980911509811103C081E08093150973
:1011400008954F925F926F927F928F929F92AF928B
:10115000BF92CF92DF92EF92FF920F931F93F8947A
:101160004090920350909303609094037090950385
:10117000C0908603D0908703E0908803F0908903A5
:10118000452B09F0A6C09B01AC012419350946097D
:10119000570929013A0100918E0310918F03209184
:1011A00090033091910348015901840C951CA61CB1
:1011B000B71C80169106A206B306A0F400918A031C
:1011C00010918B0320918C0330918D030F5F1F4F83
:1011D0002F4F3F4F00938A0310938B0320938C0370
:1011E00030938D0380928E0390928F03A092900390
:1011F000B092910300918A0310918B0320918C038C
:1012000030918D038092960390929703A092980359
:10121000B092990300939A0310939B0320939C032D
:1012200030939D0360939203709393038093940390
:1012300090939503A301920160E47DE083E090E048
:101240000E941C306C0D7D1D8E1D9F1D60938603BA
:1012500070938703809388039093890300913002F1
:101260001091310220913202309133020F3F1F4F13
:101270002F4F3F4FF1F00091300210913102209139
:101280003202309133020E3F1F4F2F4F3F4F89F0F4
:10129000C0903002D0903102E0903202F0903302E0
:1012A00021E08C149D04AE04BF0408F420E02093D8
:1012B000A20378941F910F91FF90EF90DF90CF9051
:1012C000BF90AF909F908F907F906F905F904F9066
:1012D00008954B015C0184189508A608B708A3017E
:1012E0009201261B370B480B590B641575058605B3
:1012F0009705E0F082169306A406B50640F420E0B8
:1013000030E0A90181149104A104B104A1F460E4C6
:101310007DE083E090E00E941C30A7019601261B2F
:10132000370B480B590BCA01B901C3CF821693067C
:10133000A406B50660F7A501940160E47DE083E0B2
:1013400090E00E941C306C0D7D1D8E1D9F1DB1CF45
:10135000F8CECF93DF9300D01F92CDB7DEB71C82BB
:101360001B821A82198210929E0310929F03109280
:10137000A0031092A103BE016F5F7F4FCE010396C1
:101380000E94A62669817A818B819C810E94961F8A
:10139000009761F4BE016F5F7F4FCE0103960E94FC
:1013A000B22669817A818B819C812AD50F900F901A
:1013B0000F900F90DF91CF910895FF920F931F939D
:1013C000CF93DF93082F60E070E0CB010E94592A91
:1013D000FF24F3940E947F1EEC01892B89F010E01A
:1013E000CE3F8FEFD80769F0002361F160E070E035
:1013F000CB010E94592A81E090E0892B59F322C049
:1014000011E021D5EC01892B21F0CE3F8FEFD807D9
:1014100059F711111EC011E0229609F410E00E9444
:101420002F1EEC01892B21F0CE3F8FEFD807E1F67C
:10143000111111C011E0CE3F8FEFD80709F410E071
:1014400001110BC0CE01DF91CF911F910F91FF9041
:10145000089511E0E4CF11E0F3CF60E070E0CB013C
:101460000E94592A1F25812F90E0C7CFCF93DF9389
:101470008091A203882321F060E070E0CB0148D680
:1014800031D6D0E0C0E0892B71F06AE070E080E0F6
:1014900090E00E94592A81E090DF24D62196C03D39
:1014A00027E0D20781F723D60E94EA1F1092BA03E1
:1014B0001092B9031092B3031092B4031092B503C3
:1014C0001092B6031092AF031092B0031092B103C2
:1014D0001092B2031092AB031092AC031092AD03C2
:1014E0001092AE031092A7031092A8031092A903C2
:1014F0001092AA031092A3031092A4031092A503C2
:101500001092A6034EEF5FEF6FEF7FEF4093300234
:101510005093310260933202709333021092A2030F
:10152000E6E9F3E028E0DF011D922A95E9F7109241
:1015300092031092930310929403109295031092C9
:101540008E0310928F0310929003109291031092C9
:101550008A0310928B0310928C0310928D031092C9
:101560008603109287031092880310928903DF91FB
:10157000CF9108951092C6031092C7031092C8032A
:101580001092C9031092C5038091CE039091CF03AE
:101590009093C4038093C3031092C2031092C103BB
:1015A0001092BD031092BE031092BF031092C003AD
:1015B0001092CB031092CA0390E080E00895CF927E
:1015C000DF92EF92FF920F931F93CF938C01892BA1
:1015D00009F055C02091CE033091CF038091C30311
:1015E0009091C4034091CE035091CF035093C40314
:1015F0004093C3032817390781F01092C203109259
:10160000C1031092BD031092BE031092BF0310924B
:10161000C0031092CB031092CA038091CE03909125
:10162000CF03019761F58091CA039091CB03892B79
:1016300021F480913402811112C08091CA039091EB
:10164000CB030197E1F48091BD039091BE03A0917B
:10165000BF03B091C0030197A105B10581F41092B9
:10166000BD031092BE031092BF031092C0031092EC
:10167000340282E090E09093CB038093CA03809180
:10168000CE039091CF03019709F01CC18091E40330
:101690009091E5038017910709F014C18091E00350
:1016A0009091E103A091E203B091E303009709F464
:1016B00009C12091DF0321110DC04091E003509139
:1016C000E1036091E2037091E303452B462B472B26
:1016D00009F4F8C02091CA033091CB0322303105C0
:1016E00009F0F0C02091C1032111ECC0FC01C080C1
:1016F000D180E280F3808091C503882309F4D3C0B0
:101700008091D1039091D203892B09F4FDC02091DF
:10171000D1033091D20381E02230310509F080E01D
:101720002091D1033091D203C1E02130310549F03D
:101730002091D1033091D203C1E02230310509F06C
:10174000C0E0882309F456C02091DB033091DC030C
:101750004091DD035091DE03C701B6010E945B2971
:1017600087FD14C02091DB033091DC034091DD0341
:101770005091DE036091C6037091C7038091C80346
:101780009091C9030E949C2887FD22C02091DB0311
:101790003091DC034091DD035091DE03C701B601B7
:1017A0000E945B29181634F52091DB033091DC038D
:1017B0004091DD035091DE036091C6037091C70331
:1017C0008091C8039091C9030E949C28811112C086
:1017D0008091D3039091D403A091D503B091D60307
:1017E000892B8A2B8B2B19F481E08093C20381E033
:1017F0008093C103CC2309F456C02091DB033091C0
:10180000DC034091DD035091DE03C701B6010E9465
:101810009C2887FF14C02091DB033091DC034091AA
:10182000DD035091DE036091C6037091C703809180
:10183000C8039091C9030E945B2987FF22C02091B1
:10184000DB033091DC034091DD035091DE03C701DF
:10185000B6010E949C28811126C02091DB033091A3
:10186000DC034091DD035091DE036091C60370916B
:10187000C7038091C8039091C9030E945B29181681
:1018800094F48091D3039091D403A091D503B091A7
:10189000D603892B8A2B8B2B19F481E08093C2030A
:1018A00081E08093C10381E09091C103911180E0B8
:1018B0008093C503C092C603D092C703E092C803C9
:1018C000F092C903012B09F067C18091CA0390917E
:1018D000CB03892BD9F41092D0031092C1038091CD
:1018E0003402882379F082E090E09093CB038093D8
:1018F000CA03109234022091CE033091CF0381E0CD
:10190000232BE9F080E01BC081E00ACF1092340263
:101910008091D003882349F01092C2031092CB0328
:101920001092CA031092D003EDCF8091CE03909114
:10193000CF03892BE1F08091C1031092C103209164
:10194000CA033091CB032230310509F45EC088F41C
:101950002115310509F448C02130310509F4F3C0DF
:101960001092C2031092C1031092D00338C081E0DC
:10197000E6CF2330310509F4B1C02430310581F7B9
:101980004091BD035091BE036091BF037091C003AD
:10199000411551056105710561F041505109610919
:1019A00071094093BD035093BE036093BF037093CE
:1019B000C0034091BD035091BE036091BF0370917D
:1019C000C003452B462B472BD9F42091CC033091F3
:1019D000CD032130310509F046C01092C2031092A8
:1019E000CB031092CA030CC080913402882341F0CB
:1019F00082E090E09093CB038093CA03109234026C
:101A00001092BB038091C203CEC08823C9F380919A
:101A1000D3039091D403A091D503B091D6031816A7
:101A200019061A061B060CF07DC08091CE0390911A
:101A3000CF03019709F076C08091D3039091D4032E
:101A4000A091D503B091D6038093BD039093BE03BC
:101A5000A093BF03B093C00383E090E09093CB03C7
:101A60008093CA03CDCF4091D7035091D8036091A2
:101A7000D9037091DA03452B462B472BA9F010921E
:101A8000C2038091D7039091D803A091D903B0915C
:101A9000DA038093BD039093BE03A093BF03B0937A
:101AA000C00381E090E0DACF882399F0809135027D
:101AB00090913602A0913702B09138028093BD0315
:101AC0009093BE03A093BF03B093C00384E090E063
:101AD000C5CF1092C20382E090E0C0CF8091BD03D9
:101AE0009091BE03A091BF03B091C0030097A105E0
:101AF000B10559F00197A109B1098093BD039093F5
:101B0000BE03A093BF03B093C0038091BD03909127
:101B1000BE03A091BF03B091C003892B8A2B8B2BEE
:101B200009F06ECF8091350290913602A091370274
:101B3000B0913802892B8A2B8B2B09F44ECF81E090
:101B40008093C203B3CF4091BD035091BE03609117
:101B5000BF037091C003411551056105710561F026
:101B600041505109610971094093BD035093BE036F
:101B70006093BF037093C0034091BD035091BE03B7
:101B80006091BF037091C003452B462B472B09F092
:101B900037CF8111C7CF9FCF8091BB03882309F432
:101BA00031CF8091BC03CF911F910F91FF90EF90A7
:101BB000DF90CF9008951092C6031092C703109241
:101BC000C8031092C9031092C5031092CB03109260
:101BD000CA031092C4031092C3031092E50310923B
:101BE000E4031092C2031092C1031092BD0310923D
:101BF000BE031092BF031092C0031092BC03109258
:101C0000BB031092E0031092E1031092E2031092E2
:101C1000E3031092DF031092DB031092DC031092B7
:101C2000DD031092DE0388EE93E0A0E0B0E0809345
:101C3000350290933602A0933702B0933802109287
:101C4000D7031092D8031092D9031092DA0310929E
:101C5000D3031092D4031092D5031092D60310929E
:101C6000D2031092D10381E0809334021092D0030A
:101C70001092CF031092CE031092CD031092CC039A
:101C800090E080E008958091CE039091CF03892B5E
:101C9000E1F480913402882351F08091D0038111C6
:101CA00006C081E08093BC038093BB0308958091BC
:101CB000D003882341F080913402811104C0109236
:101CC000BC0381E0F1CF1092BB03089582E090E065
:101CD000FA01918380838FEF9FEF0895CF93DF9375
:101CE000EA01009711F00E940A211982188290E0FF
:101CF00080E0DF91CF910895DB01009719F48FEF19
:101D00008C9308952EEF2C93FC017096E031F10531
:101D100008F037C08827E057F14F8F4F0C9461309F
:101D2000BF0EBD0EBB0EB90EB70EB50EB10EB30E83
:101D3000AF0EAD0EAB0EA80EA40EA00EA60EC10ED9
:101D400080E311968C93089589E2FBCF82E2F9CF6C
:101D500011961C92089583E2F4CF81E2F2CF81E1E3
:101D6000F0CF87E2EECF8AE2ECCF80E1EACF84E2E7
:101D7000E8CF88E2E6CF86E2E4CF81E3E2CF83E3F7
:101D8000E0CF80E2DECF8091F2039091F3030895DB
:101D90009093F3038093F20308958091F1030895E3
:101DA0009091F103892B8093F1030895982F9095DA
:101DB0008091F10389238093F10308958091F003CA
:101DC00008958091EE039091EF03089561157105D8
:101DD00059F0FB0130E020E070E060E024173507A7
:101DE00019F06115710511F0CB010895A081B18141
:101DF000A817B90709F4BF012F5F3F4F3696EECF02
:101E00008091F40381111CC060D266D29093E703E5
:101E10008093E6030E9408190E941A199093EB031D
:101E20008093EA030E94971D0E949E1D9093E903F0
:101E30008093E80381E08093F40390E080E00895CC
:101E400084EF9FEF08958F929F92AF92BF92CF92AF
:101E5000DF92EF92FF920F931F93CF93DF9300D007
:101E600000D000D01F92CDB7DEB71A86198618862B
:101E70001F821E821D821C821B821A8219828091FF
:101E8000F40307EF1FEF882309F49CC08E010D5F58
:101E90001F4F9E012B5F3F4FAE01495F5F4FBE0159
:101EA000675F7F4F90E080E00E941B1F8C010097CE
:101EB00021F00596029708F0DBC029853A852115A7
:101EC000310509F402C1ED80FE804B815C81B701D0
:101ED000640F751F8F8198858617970708F4F5C0E2
:101EE000E20EF31ED7019C91903C09F07FC0423076
:101EF000510508F47BC011968C914091F2035091EA
:101F0000F303452B09F49CC0913F08F071C02CE10C
:101F1000290F2D3008F48BC02DE2290F203108F451
:101F200089C0903C21F48150823008F483C088E35A
:101F3000890F8B3008F481C09CE7C92E9EE0D92E12
:101F4000E6E6FEE06D817E81AE014F5F5F4F8985E1
:101F50009A8519955C01C114D104A1F189809A80F8
:101F60008114910479F18B819C818815990508F47D
:101F700087C010E000E04B815C8170E060E0C70149
:101F80000E948B3001151105E9F449815A81698558
:101F90007A858D819E81680F791FC501F60119959B
:101FA000E980FA800D811E812F81388549855A8507
:101FB0006FEF7FEF81E090E00E94B61E8C01892BCD
:101FC00009F056C0C8012A960FB6F894DEBF0FBEBE
:101FD000CDBFDF91CF911F910F91FF90EF90DF90D8
:101FE000CF90BF90AF909F908F90089580E085CF65
:101FF00030E020E0220F331FF901EA51FC4F01903D
:10200000F081E02D309709F497CF892F90E0199552
:10201000009709F491CFDC011296ED91FC91139792
:102020001496CD90DC90309709F08CCF1FC021E042
:1020300030E0E0CF22E030E0DDCF23E030E0DACF67
:10204000D12CC12CEEE6FEE09F3F09F07BCFE09162
:10205000E603F091E703309721F4C90104EF1FEF85
:102060000CC08FEF90E019950097A9F604EF1FEFD1
:1020700089859A85009709F4A5CF0E940A21A2CFED
:102080000E94E51F8C0189859A850E940A2170E0D3
:1020900060E0C4010E947E1F98878F830E94B31E58
:1020A0009E838D836F8178856115710559F0C80114
:1020B0000E9496229A87898706EF1FEF892B09F0E5
:1020C00058CF59CF08EF1FEF56CF08EF1FEFD0CFF3
:1020D0002091F403222319F020E00C941F1987EFBC
:1020E0009FEF08958091F2039091F30308950E9469
:1020F000A31D0E94FD1CF5D0E6EEF3E088E0DF01B1
:102100001D928A95E9F71092F40390E080E008951B
:102110000C945B1B21E040E050E0BA010C941F19C5
:1021200086E090E0FA019183808390E080E008955A
:1021300047E050E06CE572E049CEDF92EF92FF920B
:102140000F931F93CF93DF938A01EC01C60FD71F24
:10215000E090F803F090F903D9800E94CD1FD816C3
:10216000190678F082E090E0F801918380838EEF89
:102170009FEFDF91CF911F910F91FF90EF90DF9034
:102180000895EF2841F482E090E0F8019183808384
:1021900084EF9FEFEECF89818093F70390E0019663
:1021A000F8019183808390E080E0E3CFCF93DF93C9
:1021B000EA010E940C1C882321F00E94DA1F0E9471
:1021C0000D1C82E090E0998388838BEF9FEFDF9175
:1021D000CF910895CF93DF93EB0186E0FB0111923D
:1021E0008A95E9F78FEF8883D8DD8983E7DD8A83D5
:1021F000E8DD9D838C83DF91CF910895CF93DF93AA
:10220000EA010E940F1C811109C082E090E09983CD
:10221000888385EF9FEFDF91CF91089590E080E074
:10222000B7DD81E090E09983888390E080E0F3CF90
:102230000F931F93CF93DF93EA018C01060F171FB3
:102240000E940F1C81110BC082E090E0998388836B
:1022500085EF9FEFDF91CF911F910F910895F801C6
:102260008181823038F082E090E0998388838EEF1C
:102270009FEFF0CF81E090E08BDD88E090E09983E4
:10228000888390E080E0E6CFCF93DF930097D1F48E
:10229000EB01FB01329686E0DF011D928A95E9F79A
:1022A0008FEF888385E089831A820E94CD1F8B83FC
:1022B0000E94CC1F9D838C8381E08E838F83DF916E
:1022C000CF910895DF91CF9117CD88E990E1909358
:1022D000F6038093F50308958091F5039091F6033A
:1022E00008951092F6031092F50308958091F80373
:1022F0009091F9030895411105C06115710581059B
:10230000910561F06093F8037093F9038093FA03E9
:102310009093FB034093FC0381E0089580E00895CF
:10232000FF920F931F93CF93DF938A01EC01C60FA7
:10233000D71FF9800E94CD1FF816190668F082E0B9
:1023400090E0F801918380838EEF9FEFDF91CF9132
:102350001F910F91FF9008956C817D818E819F81E7
:102360004B81C9DF811108C082E090E0F8019183C0
:10237000808384EF9FEFEACF89818093F70390E019
:102380000196F8019183808390E080E0DFCFCF93C6
:10239000DF93EA01FC01E60FF71F648175818681F6
:1023A00097814381A8DF811109C082E090E0998381
:1023B000888384EF9FEFDF91CF91089581E090E0D3
:1023C0009983888390E080E0F6CFE8EFF3E04081E6
:1023D000518162817381480F511D611D711D4083C0
:1023E0005183628373830895CF93C091F7034C2F79
:1023F00050E06091F8037091F90301960E948230D9
:102400008C2FE3DF1092F703CF910895009799F492
:102410008091F8039091F9032FEFFB012083892B22
:1024200059F02091F70330E02F5F3F4F2417350715
:1024300019F4CB01D9CF60CC0895009799F480911D
:10244000F8039091F9032FEFFB012083892B59F0BA
:102450002091F70330E02F5F3F4F2417350719F421
:10246000CB01C2CF49CC089523E1AC01249FC00128
:10247000259F900D1124E0910104F0910204E80FD2
:10248000F91F238134812250310981E02230310546
:1024900008F080E008950F931F93CF93DF9300918E
:1024A000030410910404D0E0C0E080E00C171D0785
:1024B00049F491E0811190E0892FDF91CF911F9134
:1024C0000F9108958111F5CFCE01CEDF2196EECF89
:1024D000A0910104B0910204109729F12091030406
:1024E0003091040482179307F0F453E1589F900150
:1024F000599F300D1124A20FB31FED91FC9111973C
:10250000309789F012968C91681768F48DE0689F77
:10251000E00DF11D112480819181892B21F081E052
:102520009281491708F080E008959C0143E1429FA1
:10253000C001439F900D1124E0910104F091020429
:10254000E80FF91F8385823091F481E090E0658186
:1025500076814091390250913A026417750711F45F
:1025600090E080E0892B19F081E0232B09F080E0D6
:102570000895FC01A081B1818DE0689FA00DB11D7F
:10258000112413964D915C9185859685489F900105
:10259000499F300D589F300D1124C90101966111DA
:1025A00003C0478144FD04960895EF92FF920F9374
:1025B0001F93CF93DF93EA01FC01E60FF71F02811F
:1025C0001381E480F5804F2D6E2DC80181DF8111CC
:1025D0000DC082E090E0998388838EEF9FEFDF91BA
:1025E000CF911F910F91FF90EF900895C8013CDFAC
:1025F000882339F082E090E09983888388EF9FEF09
:10260000EECF1093400200933F02E0924102F0921D
:10261000420281E090E09983888390E080E0DFCF00
:10262000CF92DF92EF92FF920F931F93CF93DF939E
:102630007A01EC01C60FD71FC0903F02D090400234
:102640000091410210914202412F602FC60140DFEC
:10265000811110C082E090E0F701918380838AEFBE
:102660009FEFDF91CF911F910F91FF90EF90DF903F
:10267000CF900895C601F8DE882341F082E090E013
:10268000F7019183808388EF9FEFEBCF4C815D81D1
:102690006E817F819A8189818F3F41F082E090E055
:1026A000F701918380838EEF9FEFDBCFE3E1EC9D19
:1026B0009001ED9D300D1124E0910104F091020490
:1026C000E20FF31F0190F081E02D2DE0029FE00D5D
:1026D000F11D11240190F081E02D27E0129FE00D03
:1026E000F11D1124808391838B81828343835483E2
:1026F000658376831F5F1093420281E090E0F701CB
:102700009183808390E080E0ACCFEF92FF920F93B3
:102710001F93CF93DF937A018C01060F171FC0918F
:102720000104D0910204209781F021E030E0F8010B
:10273000828193814091030450910404841795078A
:1027400010F030E020E0232B71F482E090E0F701FC
:10275000918380838EEF9FEFDF91CF911F910F9137
:10276000FF90EF90089543E1489F9001499F300DFD
:102770001124C20FD31F78DE882341F082E090E05D
:10278000F7019183808388EF9FEFE6CFF8012481E2
:10279000358120383105C8F687818111D6CF418136
:1027A000842F90E08F7E009741F082E090E0F70167
:1027B0009183808386EF9FEFCFCF4F833E832D831E
:1027C000268128871986223010F421E0288721E00D
:1027D00030E0F70131832083BFCF88E090E0FA0139
:1027E0009183808390E080E00895FB018FEF8083E8
:1027F00081E181838FEF9FEF9383828380E890E074
:1028000095838483168217820895FB018FEF80835E
:1028100091E0918382839383848384E3858381E041
:1028200090E097838683089582E090E0FA01918397
:10283000808380EF9FEF0895DF92EF92FF920F93D6
:102840001F93CF93DF93EA01FC01E60FF71F81810D
:10285000813071F082E090E0998388838FEF9FEF61
:10286000DF91CF911F910F91FF90EF90DF9008952E
:1028700082819381D4802581E680F78000910104D4
:10288000109102040115110539F482E090E099835A
:1028900088838CEF9FEFE4CF4091030450910404B0
:1028A0008417950738F082E090E0998388838EEF53
:1028B0009FEFD6CF892B39F082E090E0998388830F
:1028C00086EF9FEFCDCF8D2D8D7FB1F72130A1F712
:1028D00081E0D11006C091E0E916F10431F080E00A
:1028E00004C0E2E0EE16F104D0F3882329F390E06F
:1028F00080E0BADD882339F082E090E09983888314
:1029000088EF9FEFADCFF801D38681E08487F6860C
:10291000E586108A178681E090E09983888390E0AD
:1029200080E09ECF4DE050E066E872E04FCA8F92A3
:102930009F92BF92CF92DF92EF92FF920F931F93DD
:10294000CF93DF93EA01FC01E60FF71F82819381A9
:102950000481B580E0910104F0910204309791F474
:1029600082E090E0998388838CEF9FEFDF91CF9195
:102970001F910F91FF90EF90DF90CF90BF909F90AD
:102980008F900895209103043091040482179307D7
:1029900038F082E090E0998388838EEF9FEFE6CF56
:1029A00023E1289F6001299FD00C1124EC0DFD1D0F
:1029B000E080F180E114F10499F28281081748F770
:1029C0008DE0089F80011124E00EF11EF701808147
:1029D0009181892B29F6BB20E1F2F7E0BF9E4001EF
:1029E0001124C4010E94D120F70191838083E091DA
:1029F0000104F0910204EC0DFD1D0190F081E02D29
:102A0000E00FF11F80819181009739F482E090E01E
:102A1000998388838DEF9FEFA9CFA40170E060E0D8
:102A20000E948B308091010490910204C80ED91E3F
:102A3000F60180819181080F191FF801B28281E0AF
:102A400090E09983888390E080E090CFAF92BF922E
:102A5000CF92DF92FF920F931F93CF93DF93EA0100
:102A6000FC01E60FF71F82819381F480009101043D
:102A7000109102040115110581F482E090E0998320
:102A800088838CEF9FEFDF91CF911F910F91FF9083
:102A9000DF90CF90BF90AF900895209103043091C4
:102AA00004048217930738F082E090E099838883CA
:102AB0008EEF9FEFE8CF2FEF2F0D2C3FA8F723E1EC
:102AC000289F6001299FD00C11240C0D1D1DF801B9
:102AD00080819181892B89F6FDE0FF9E50011124B0
:102AE000C5010E94D120F80191838083E091010407
:102AF000F0910204EC0DFD1D80819181009739F465
:102B000082E090E0998388838DEF9FEFBCCFA50191
:102B100070E060E00E948B30E0910104F0910204CB
:102B2000EC0DFD1DF28281E090E09983888390E0B6
:102B300080E0A9CFCF92DF92EF92FF920F931F9385
:102B4000CF93DF93860F971FFC0102811381809141
:102B5000010490910204892B81F082E090E0FA0157
:102B6000918380838CEF9FEFDF91CF911F910F9125
:102B7000FF90EF90DF90CF900895C801B0E0A0E003
:102B80000197A109B1098F3F9F4FA105B10540F001
:102B900082E090E0FA01918380838EEF9FEFE4CF93
:102BA0007A0183E1809F6001819FD00C1124C601CE
:102BB0000E94D120EC01009741F482E090E0F701FF
:102BC000918380838DEF9FEFCFCFA60170E060E00F
:102BD0000E948B30D0930204C0930104109304042C
:102BE0000093030490E080E02FEF3FEF41E061E0CD
:102BF00070E08017910741F481E090E0F701918344
:102C0000808390E080E0B0CF3A8B298B1B864C8785
:102C10007E876D87188A1F8601966396EACFEF92AA
:102C2000FF921F93CF93DF93EC0110E0F12CE12C86
:102C30006A811617B0F083E0689FB0011124AE01DD
:102C40004F5E5F4FC7010E943621009721F02FEFA2
:102C50003FEF3A8B298BDF91CF911F91FF90EF903F
:102C60000895612FCE0185DC61E070E00E947E1F37
:102C7000E816F90608F47C011F5FDACFF89420917A
:102C8000FF033091000481E02115310509F080E057
:102C9000232B09F0789408952F923F924F925F92E0
:102CA0006F927F928F929F92AF92BF92CF92DF925C
:102CB000EF92FF920F931F93CF93DF933C01660E29
:102CC000771EF301828193814C01B12CA12CC0911C
:102CD0000104D0910204209769F021E030E0609176
:102CE0000304709104048617970710F030E020E089
:102CF000232BD1F482E090E0FA01918380838EEF60
:102D00009FEFDF91CF911F910F91FF90EF90DF9098
:102D1000CF90BF90AF909F908F907F906F905F907B
:102D20004F903F902F9008958092430290924402DA
:102D3000A0924502B092460263E1689F9001699FAC
:102D4000300D1124C20FD31FF3018181833040F075
:102D500082E090E0FA019183808386EF9FEFD1CFEC
:102D60002A012B813C81232BF1F4288139819F8119
:102D700091FF2EC0232B09F46FC0209106049A8185
:102D8000422F490F5527551FBA0141E050E06138E5
:102D9000710514F050E040E0452B09F45DC02A872E
:102DA000920F909306048150823008F481C066DF50
:102DB000882309F4D8C0F3018181813009F48DC0E2
:102DC00008F47BC0823009F4C6C090E080E0ADC05A
:102DD000232B09F441C0209105049A81E22FE90FC9
:102DE000FF27FF1F41E050E0ED3FF10514F050E0F8
:102DF00040E0452B89F12A87920F90930504D3CFA9
:102E0000A081B181A20FB31F11966C91060F111D05
:102E10000196295F3F4F8417950794F38D859E8512
:102E2000089F1001099F300C189F300C1124C11409
:102E3000D104D1F48F8184FF17C00E94CC1FF5E02C
:102E40002F0E311C21E08215930508F420E0A70124
:102E5000435F5F4F21110EC082E090E0F201918349
:102E6000808387EF9FEF4DCF0E94CC1F2FEF221A58
:102E7000320AE8CF88819981E80EF91EF7011483A0
:102E80000383FFEFCF1ADF0A7A018A818C151D04B4
:102E900009F00CF48CCFE881F981EE0DFF1D428121
:102EA00050E030E020E010E000E090E080E0B3CFC0
:102EB000F12CE12CD12CC12CE8CF81E090E09C8357
:102EC0008B83E9DA882309F480CF81E090E00E94C7
:102ED000C80E80E40E94D60E78CF89899A8901961F
:102EE00061F083E090E09C838B8382E090E00E941D
:102EF000C80E80E40E94D00E68CF8D819E81209103
:102F0000390230913A0282179307D1F460913D0261
:102F100070913E02AE014F5E5F4F80913B029091F7
:102F20003C020E9455220097E1F2789422E030E0C2
:102F3000F20131832083892B99F08DEF9FEFE1CE51
:102F400089288A288B2869F6892B59F6CE0167DEF5
:102F5000188A1F86E8CF82E090E09C838B8335CF70
:102F600090E080E0CECE82E090E0F2019183808319
:102F700085EF9FEFC6CE8F929F92AF92BF92CF9276
:102F8000DF92EF92FF920F931F93CF93DF93EA01AB
:102F90008C01060F171FF8018181833098F082E0C1
:102FA00090E09983888386EF9FEFDF91CF911F9107
:102FB0000F91FF90EF90DF90CF90BF90AF909F90D8
:102FC0008F9008958091010490910204892B61F003
:102FD00081E090E02091030430910404232B11F44C
:102FE00090E080E0892B39F482E090E09983888337
:102FF0008EEF9FEFDACF42DE882309F4DFC0F801BD
:103000008181813009F495C0E8F0823099F42091F3
:10301000030430910404E0910104F091020490E073
:1030200080E041E050E02817390709F0BDC033DAED
:10303000811117C0789481E090E09983888390E0B3
:1030400080E0B3CF2091030430910404E0910104A7
:10305000F091020490E080E041E050E02817390749
:1030600041F481E090E00E94C80E80E40E94D60EF8
:10307000E1CF63817481672B11F054834383019600
:103080007396ECCFE0910104F0910204E00FF11F80
:103090002381348122303105D9F4218932892F3FAF
:1030A0003F4FB1F4258136814091390250913A0267
:1030B0002417350761F5AF014F5E5F4F60913D0208
:1030C00070913E0280913B0290913C020E945522F9
:1030D000EFEFCE1ADE0AEE0AFE0A0D5E1F4F409198
:1030E00003045091040470E060E0C416D506E606BF
:1030F000F7063CF5009731F27894892B09F49BCFC1
:1031000082E090E0998388838DEF9FEF4ECFC114CA
:10311000D104E104F104E1F6232BD1F6CF017FDDE8
:10312000E0910104F0910204E00FF11F108A17866C
:10313000CFCF10E000E090E080E0C12CD12C7601F0
:10314000CECF0097C9F610E000E0812C912C5401FD
:1031500083E0E82EF12C1AC0E0910104F091020402
:10316000E00FF11F83819481029749F4F482E38296
:1031700082E090E00E94C80E80E40E94D00EFFEF33
:103180008F1A9F0AAF0ABF0A0D5E1F4F809103047A
:1031900090910404B0E0A0E088169906AA06BB0648
:1031A000DCF290E080E0A8CF638174816230710529
:1031B00011F4548343830196739635CF82E090E0F7
:1031C0009983888385EF9FEFF0CE0097B9F48FEF56
:1031D000FB018083209143023091440243E1429FEE
:1031E000C001439F900D1124E0910104F09102046D
:1031F000E80FF91F8285FB01818308950C947C0EF2
:1032000088E090E0FA019183808390E080E0089567
:10321000109200041092FF03E1E0F4E086E0DF0189
:103220001D928A95E9F782E994E19093FE038093D9
:10323000FD0308958091FD039091FE0308952F9260
:103240003F924F925F926F927F928F929F92AF9236
:10325000BF92CF92DF92EF92FF920F931F93CF9383
:10326000DF93CDB7DEB72F970FB6F894DEBF0FBE52
:10327000CDBFF894E091FF03F09100043196F093F4
:103280000004E093FF0378944090010450900204FE
:103290004114510409F40CC2E0910304F0910404B8
:1032A000EF2B09F405C22D8749875A876B877C87E6
:1032B00098878F831201B12CA12C10E000E080913F
:1032C000030490910404A816B90618F40115110519
:1032D00029F1F8948091FF03909100040197909355
:1032E00000048093FF037894C8012F960FB6F894DA
:1032F000DEBF0FBECDBFDF91CF911F910F91FF9029
:10330000EF90DF90CF90BF90AF909F908F907F9085
:103310006F905F904F903F902F9008957101E41847
:10332000F508D10117968C91179781FD54C013961B
:103330008D919C911497039709F04DC015968D912E
:103340009C91EF81F8858E179F0709F044C0B50165
:1033500090E080E07FD48A832091010430910204C0
:103360003D832C833D85332309F44CC04C815D8122
:10337000452B09F49AC18091030490910404A81686
:10338000B90608F092C1C501D0D88823E9F06C8154
:103390007D816E0D7F1D7D836C83DB011F968D917A
:1033A0009C91892B89F0D12CC12CF12CE12CAC8182
:1033B000BD8112968C9112978E151F0409F094F41A
:1033C00050961C921E921F972A81222321F0B5014C
:1033D00090E080E041D43FEFA31AB30A43E1240E0A
:1033E000311C6DCFAC81BD81ED91FC91EC0DFD1DCB
:1033F000858196810FD7BFEFEB1AFB0AEDE0CE0E69
:10340000D11CD5CFEC81FD81309709F44EC180915C
:10341000030490910404A816B90608F046C1EE0D05
:10342000FF1DFF87EE87C50180D88B83882339F184
:10343000AE85BF851F968D919C915097019621E096
:103440001D964D915C918417950709F020E02E831D
:103450001982712C10E000E0AE85BF8512968C9128
:10346000781608F45DC0EE85FF8587859089019602
:10347000658576850E942B30908B8787A5CFB1E03C
:10348000BE83E6CF992493946BC08BD6F6019683C6
:10349000858382C0D601ED90FC90B7E06B9EE00C76
:1034A000F11C1124F7016381748180818F3F61F1E8
:1034B00021E030E002C0220F331F8A95E2F7C901F4
:1034C000092E000CAA0BBB0BFB01408151816281CC
:1034D000738184239523A623B72321E0892B8A2B8C
:1034E0008B2B09F420E0D4012C93D70111968C91F9
:1034F000F60123853485820F932F911D880E991E26
:103500001486138663949BC0418150E0C4010E94DD
:103510008230EBCF998206EF1FEFC5C01982C3C07E
:10352000F981F111A0CFEDE07E9E70011124AE85EE
:10353000BF85CD90DC90CE0CDF1C15D49D838C8391
:10354000BB81BB2309F49ECF81E0EE85FF852785F3
:103550003089232B09F080E0982E882309F458C085
:10356000672D8E859F8505D8D60118969C938E93DE
:10357000179761E070E0C2D4EE85FF85218932891A
:103580002F3F320709F481CFBC01C901CFD7D60143
:1035900016969C938E931597D60115968D919C91B6
:1035A0001697009709F4B6CFEC81FD818E0F9F1F0F
:1035B0001A969C938E931997AE85BF85ED91FC91D9
:1035C0001197EE0EFF1EF7012185328514861386B2
:1035D0001A968C91870DD9018D93711016C0EE85C6
:1035E000FF85878184FF11C049855A856B857C855D
:1035F000F9014183528363837483F7018385948542
:103600000496A80FB91F14861386F701B287A18705
:10361000D60115968D919C911697892B09F443C07C
:10362000EE85FF85258136818091390290913A029D
:103630002817390779F019968D909C90612CD60146
:1036400012968C911297681608F424CF1A969C92C1
:103650008E921997BE81BB2309F460CF61E070E0C0
:10366000F601878190854AD4D6011796ED90FC909B
:10367000189715964D915C91E1E0F0E0BA81BB237B
:1036800011F0F0E0E0E00C811D819C01B50188277C
:1036900099278E1B9F0B6AD38C01892B21F0F60191
:1036A00085819681B7D57394D7CE0FEF1FEF8CCE5F
:1036B00010E000E00ECE2F923F924F925F926F92F9
:1036C0007F928F929F92AF92BF92CF92DF92EF92B2
:1036D000FF920F931F93CF93DF93809101049091FA
:1036E000020410E000E0892BA9F0C8DA0AEF1FEF0E
:1036F000882381F02090030430900404C0910104D9
:10370000D0910204D12CC12C10E000E02C143D0417
:10371000A9F47894C801DF91CF911F910F91FF9088
:10372000EF90DF90CF90BF90AF909F908F907F9061
:103730006F905F904F903F902F900895C6010E9428
:103740009512882309F18B819C810397E9F48F8579
:103750009889892BC9F0B60190E080E07BD221E006
:1037600030E0882311F030E020E044245524421A50
:10377000530AB12CA12C912C812C8A818815190413
:1037800009F038F4188A1F864FEFC41AD40A6396DA
:10379000BDCFE881F981EA0DFB1D85819681892BDA
:1037A000A1F161E070E087819085A8D33C01DBD274
:1037B0008C01E881F981EA0DFB1D818592852581C7
:1037C0003681200F311FAC01421B530B9A014781F8
:1037D0005085421B530B70E060E00E948B30E88103
:1037E000F981EA0DFB1DE780F08445815681930144
:1037F000B601C201BBD28C01892B39F0E881F98175
:10380000EA0DFB1D8581968105D55FEF851A950A26
:103810008DE0A80EB11CB1CF31CA789408952F92D3
:103820003F924F925F926F927F929F92AF92BF9220
:10383000CF92DF92EF92FF920F931F93CF93DF937C
:1038400000D000D0CDB7DEB7009101041091020482
:10385000992493940115110509F43EC0A090030426
:10386000B09004040BDA982E8823B1F11092020470
:1038700010920104109204041092030410920504A3
:10388000109206048FEF9FEFDC0180934302909328
:103890004402A0934502B093460278947FD31E83DE
:1038A0000D83C12CD12C7601C501B0E0A0E0898345
:1038B0009A83AB83BC8322242A94322C89819A81F7
:1038C000AB81BC81C816D906EA06FB06F4F0C80134
:1038D000A1D480E40E94D60E892D26960FB6F894C6
:1038E000DEBF0FBECDBFDF91CF911F910F91FF9033
:1038F000EF90DF90CF90BF90AF909F907F906F90B0
:103900005F904F903F902F900895AD81BE811596A6
:103910008D919C9116972091390230913A0282172D
:103920009307D1F451968D919C91EED5ED81FE8156
:1039300080819181B12CA12C412C512C3201892BF9
:1039400089F5BFEFCB1ADB0AEB0AFB0AED81FE819A
:103950007396FE83ED83B2CFC114D104E104F10468
:1039600029F7892B19F7ED81FE81818992898F3F93
:10397000980709F029D5AD81BE8152963C922E92CE
:103980005197D4CF8A0D9B1DDC018D919C9100979E
:1039900009F040D4BFEF4B1A5B0A6B0A7B0AEDE0DB
:1039A000AE0EB11CAD81BE818D919C911197129686
:1039B0004C9150E070E060E04416550666067706CC
:1039C0000CF328D4BECFCF93DF93EA0128DF811117
:1039D00009C082E090E09983888385EF9FEFDF91B3
:1039E000CF91089581E090E00E94C80E81E090E0C0
:1039F0009983888390E080E0F2CF11DF1092FE037C
:103A00001092FD03089542E050E064ED72E00C94E2
:103A1000E60EFF920F931F93CF93DF938A01EC0181
:103A2000C60FD71FF980B9D20897F816190671F09A
:103A300068F082E090E0F801918380838EEF9FEF41
:103A4000DF91CF911F910F91FF9008956C817D813F
:103A50008E819F814B810E947B11811108C082E081
:103A600090E0F8019183808384EF9FEFE9CFF980A4
:103A70000E9476114F2D50E0BE01685F7F4F0E947B
:103A8000823089810E94E51181E090E0F801918304
:103A9000808390E080E0D4CFDF92EF92FF920F938B
:103AA0001F93CF93DF938A01EC01C60FD71F0E94AB
:103AB00076117C01D98071D2DD2059F0029721E086
:103AC00030E0D816190619F010F030E020E0232B72
:103AD00079F482E090E0F801918380838EEF9FEF8C
:103AE000DF91CF911F910F91FF90EF90DF9008959C
:103AF000EF2841F482E090E0F8019183808384EF25
:103B00009FEFEECFF9800E9476114F2D50E0BE015D
:103B10006E5F7F4F0E94823089810E94E51181E0B3
:103B200090E0F8019183808390E080E0D9CF83E03A
:103B30009DE1909308048093070408958091070401
:103B40009091080408950895FC01118210829383D6
:103B500082830895DB011D921C92DC011296ED9187
:103B6000FC9113977183608313967C936E931297E5
:103B70000895FC0180819181DB018D939C93A0814C
:103B8000B181109741F08D919C9191838083892B15
:103B900011F4F383E2830895FC0180819181DB01BC
:103BA0008D939C93892B11F473836283718360835B
:103BB0000895FC0111821082938382830895CF932C
:103BC000DF931F921F92CDB7DEB71A821982F89445
:103BD000BE016F5F7F4F8EE094E0CBDF89819A81D9
:103BE000009709F017D389819A81892B89F7BE0143
:103BF0006F5F7F4F82E194E0BCDF89819A810097FB
:103C000009F008D389819A81892B89F778940F90DC
:103C10000F90DF91CF910895CF93DF931F921F9262
:103C2000CDB7DEB71A821982F894BE016F5F7F4F5D
:103C30008AE094E09EDF89819A81009709F0EAD2B8
:103C400089819A81892B89F778940F900F90DF9161
:103C5000CF91089581E0089590E080E00895EF927B
:103C6000FF920F931F93CF93DF931F921F92CDB7B5
:103C7000DEB71A8219828091090407EF1FEF8823AB
:103C8000A1F1F894BE016F5F7F4F82E194E071DF94
:103C9000789489819A81EE24E394F12C892B51F454
:103CA000F894BE016F5F7F4F8EE094E062DF7894FE
:103CB000F12CE12C89819A810EEF1FEF0097A9F07A
:103CC000FC014281538164E070E074D68C01892B41
:103CD00061F0F89469817A81C701880F991F880F74
:103CE000991F825F9B4F58DF7894C8010F900F9007
:103CF000DF91CF911F910F91FF90EF9008950F9357
:103D00001F93CF93DF9300D01F92CDB7DEB71C82F5
:103D10001B821A8219828091090407EF1FEF882302
:103D2000C1F0AE014D5F5F4F64E070E0CE010196DF
:103D3000B4D68C01892B69F4E981FA818B819C814D
:103D400093838283F89469817A818AE094E002DF28
:103D50007894C8010F900F900F900F90DF91CF9142
:103D60001F910F910895B9D7049608958F929F924D
:103D7000AF92BF92CF92DF92EF92FF920F931F9379
:103D8000CF93DF931F921F92CDB7DEB71A821982AD
:103D9000BC016F5F7F4F6330710598F0AA24AA942D
:103DA000BA2CC5010F900F90DF91CF911F910F9109
:103DB000FF90EF90DF90CF90BF90AF909F908F904B
:103DC00008954115510551F3480159018A016C01CB
:103DD000CADF8815990511F7E114F104F9F28E0D87
:103DE0009F1DA816B906D0F2809109048823F1F02E
:103DF000F894B501645071099701AE014F5F5F4FB0
:103E0000C8010496DFD65C01892B71F489819A81FF
:103E1000F80193838283C601880F991F880F991F29
:103E2000B801825F9B4F96DE7894BBCF87EFA82EB8
:103E3000BB24BA94B6CFAF92BF92CF92DF92EF92EB
:103E4000FF920F931F93CF93DF931F921F92CDB7D3
:103E5000DEB71A821982892B09F047C061157105F6
:103E600009F443C04115510509F43FC0211531053E
:103E700009F43BC001151105C1F1809109048823A3
:103E8000B9F179016A015B01F894BE016F5F7F4F60
:103E90008AE094E06EDE789489819A81009759F1E6
:103EA000DC0112966D917C91A8010496A4D68C0138
:103EB000E981FA81D501ED93FC9382819381049687
:103EC000F601918380834FDFD7018D939C93C801C6
:103ED0000F900F90DF91CF911F910F91FF90EF9076
:103EE000DF90CF90BF90AF9008950FEF1FEFEFCF0F
:103EF00007EF1FEFECCF0EEF1FEFE9CFCF93DF936C
:103F0000EC01672B71F4F2D68C179D0760F0E5D6B3
:103F10002496C80FD91FE4D68C0F9D1FDF91CF9137
:103F20000895E1D6F1CF90E080E0F8CF0F931F9392
:103F3000CF93DF932091090421112BC08B01EC0159
:103F40008EE094E001DE82E194E0FEDD8AE094E020
:103F5000FBDD97D00097C1F4C9D670E060E0CEDFFA
:103F600047E452E062E070E081D1009769F480910B
:103F7000470290914802CCD6B801CE0101D50097F6
:103F800019F421E020930904DF91CF911F910F9143
:103F9000089584EF9FEFF8CFA6C6A8C6CF93DF930E
:103FA000A8D6EC01892B11F40ADE36DECE01DF91B2
:103FB000CF910895CF93DF939CD6EC01892B09F420
:103FC000FEDDCE01DF91CF9108958091470290915F
:103FD00048020895CF93DF9380910904D0E0C0E0B8
:103FE0008823D1F09AD6EC01892BB1F4E8DD14DEF8
:103FF0008091470290914802E7D1E8D2EC01892BE9
:1040000059F48EE094E0D5DD82E194E0D2DD8AE0DF
:1040100094E0CFDD10920904CE01DF91CF91089595
:10402000EF92FF920F931F93CF93DF93EC017A01EE
:104030008B010F5F1F4F0E9DA0010F9D500D1E9D08
:10404000500D112470E060E00E948B3090E080E021
:10405000F0E0E0E02FEFE816F90639F4DF91CF91B8
:104060001F910F91FF90EF9008951A821982288373
:10407000309711F0D283C1830196FE01C00FD11F8A
:10408000EACFCF92DF92EF92FF920F931F93CF93DD
:10409000DF930FE915E00C7F43E050E069E472E044
:1040A0008FE492E01AD489E4E82E82E0F82E9FE4AF
:1040B000C92E92E0D92ECEE3D6E0D7014D915D9185
:1040C0007D01F601619171916F01198308835D8310
:1040D0004C835B834A837F836E839B012F5F3F4FBB
:1040E000249FC001259F900D349F900D1124998726
:1040F00088870115110511F0C80192DF888599851F
:10410000080F191F2A96FFE4EF16F2E0FF06A9F642
:10411000E8E1F4E084E891E0DF019C011D92215088
:104120003040E1F7109217041092160410925D06C9
:1041300010925C06109261061092600610925F0663
:1041400010925E0610926306109262061092650647
:1041500010926406109267061092660610926B0623
:1041600010926A06109269061092680610926D0607
:1041700010926C0610926F0610926E0610923B061B
:1041800010923A0610923D0610923C0690E080E0B4
:10419000DF91CF911F910F91FF90EF90DF90CF9023
:1041A00008950097F1F0F894AFE4B2E0EEE3F6E0A2
:1041B00030E020E04D915D9148175907A8F0428109
:1041C00053814115510581F08AE0829FF001839F60
:1041D000F00D1124E25CF94F80819181009759F430
:1041E000789490E080E008952F5F3F4F3A96233017
:1041F000310501F7F5CFDC0111966D917C9171834A
:1042000060834150510953834283FC012193CF01C4
:1042100078940895009749F1DC018E91853041F43E
:10422000E0913C06F0913D063097F9F0CD011994EC
:104230008530D8F4282F30E0F8948FEF8C938AE003
:10424000829FF001839FF00D1124E25CF94F808181
:10425000918112969C938E931197B183A083828152
:10426000938101969383828378940895CF92DF920D
:10427000EF92FF920F931F93CF93DF939C018BE1FB
:1042800094E08C7F4115510509F49BC0211531053F
:1042900009F497C06115710509F493C07A01AB0167
:1042A000B9016D5F7F4F6C7F9B012F5F3F4F249F54
:1042B0008001259F100D349F100D1124F89420913A
:1042C0005C0630915D06232B59F4209164063091F1
:1042D00065062115310569F12017310708F058C02E
:1042E0002091660630916706232B91F42091640695
:1042F00030916506820F931F20916E0630916F06F4
:104300002115310509F441C02017310708F056C0C6
:104310007894CFEFDFEF86EF9FEFF701D183C08373
:10432000DF91CF911F910F91FF90EF90DF90CF9091
:104330000895C3E0D0E0C0901604D090170421E89F
:1043400031E02C193D092017310710F32AE02C9F8A
:10435000F0012D9FF00D1124E25CF94F91838083D1
:104360005583448353834283778366831187008711
:10437000009709F055DE0C0D1D1D109317040093D6
:104380001604789490E080E0C8CFC4E0D0E0D3CFAA
:10439000C3E0D0E02AE02C9FF0012D9FF00D112406
:1043A000E25CF94F91838083558344835383428336
:1043B00077836683009729F333DEE3CFC4E0D0E050
:1043C000E9CF8FEF9FEFACCF9C010397029708F0E6
:1043D00069C0F89484E09AE0482F50E0241735072C
:1043E0000CF44DC091E08AE0829FF001839FF00DB4
:1043F0001124E25CF94F118210821582148213821B
:104400001282178216829923B1F180915C069091F5
:104410005D06892BA9F4209164063091650621156B
:10442000310571F08091160490911704821B930B53
:1044300090931704809316041092650610926406F8
:104440008091660690916706892BA9F420916E06EB
:1044500030916F062115310571F08091160490910D
:104460001704821B930B90931704809316041092E9
:104470006F0610926E06789490E080E00895949F05
:10448000F001959FF00D1124E25CF94F40815181BC
:10449000452B31F440855185452B11F481509CCF3B
:1044A00090E0A1CF8FEF9FEF08954115510549F19D
:1044B000009739F16115710521F1F89420913A06C0
:1044C00030913B06232BB9F420913C0630913D06F8
:1044D000232B89F490933B0680933A0670933D0614
:1044E00060933C06789425E030E090E080E0FA01AB
:1044F00031832083089578942FEF3FEF86EF9FEF6D
:10450000F6CF8FEF9FEF0895059769F4F894109216
:104510003B0610923A0610923D0610923C067894A3
:1045200090E080E008958FEF9FEF08956115710589
:1045300019F4F0E0E0E011C08530910581F4E091DC
:104540003A06F0913B063097A1F3CB0101961995FD
:10455000009779F3FC0185E08193CF0108959C01D8
:10456000235031092230310520F72AE0289FD0015D
:10457000299FB00D1124A25CB94F2D913C91119748
:10458000232BB9F216962D913C91179726173707D2
:1045900080F2F89412962D913C91139721153105D4
:1045A00029F0ED91FC911197309711F47894C1CFD7
:1045B0004181528111965C934E932150310913969B
:1045C0003C932E93129781937894C7CFECE9F5E052
:1045D0008EE9DF011D928A95E9F7E8E1F4E084E8CD
:1045E00091E0DF019C011D9221503040E1F71092D3
:1045F000170410921604EEE3F6E082E3DF011D9249
:104600008A95E9F7EAE3F6E084E0DF011D928A95F6
:10461000E9F790E080E00895CF93DF93C0915502D1
:10462000D0915602CF3FDC0759F45CD490935602E8
:104630008093550297FF09C0D0935602C09355024C
:1046400084EF9FEFDF91CF91089590E080E0FACF63
:104650008230910528F48093700690E080E0089500
:104660008FEF9FEF08954F925F926F927F92AF927C
:10467000BF92CF92DF92EF92FF920F931F93CF934F
:10468000DF931F921F92CDB7DEB71A82198200976F
:1046900009F478C06115710509F474C020915502C0
:1046A0003091560207EF1FEF2F3F3F4F09F444C0F0
:1046B0006B015C01412C512C3201F12CE12C10E0FA
:1046C00000E09E012F5F3F4FA6014E195F09B50123
:1046D0006E0D7F1D809155029091560262D4892BF8
:1046E00009F04AC089819A81009741F4E114F104EC
:1046F00029F420917006222309F441C0E80EF91E26
:10470000EC14FD04C8F480E8481684E858068EE1ED
:104710006806710418F560E070E0CB01CAD62AE0A3
:10472000420E511C611C711C0A3F4FEF140721F00F
:10473000043F8FEF1807A1F4C8010F900F90DF918D
:10474000CF911F910F91FF90EF90DF90CF90BF908E
:10475000AF907F906F905F904F90089501EF1FEFA3
:1047600081E090E0013F2FEF120711F090E080E030
:10477000892B09F4A6CFE0CF04EF1FEFDDCF0AEFBE
:104780001FEFDACF0FEF1FEFD7CF4F925F926F92ED
:104790007F92AF92BF92CF92DF92EF92FF920F93F0
:1047A0001F93CF93DF931F921F92CDB7DEB71A826C
:1047B0001982009709F478C06115710509F474C075
:1047C000209155023091560207EF1FEF2F3F3F4FC8
:1047D00009F444C06B015C01412C512C3201F12CD5
:1047E000E12C10E000E09E012F5F3F4FA6014E1923
:1047F0005F09B5016E0D7F1D8091550290915602A3
:1048000086D3892B09F04AC089819A81009741F4A7
:10481000E114F10429F420917006222309F441C027
:10482000E80EF91EEC14FD04C8F480E4481682E496
:1048300058068FE06806710418F560E070E0CB015F
:1048400038D62AE0420E511C611C711C0E3F4FEFFE
:10485000140721F0043F8FEF1807A1F4C8010F904F
:104860000F90DF91CF911F910F91FF90EF90DF900C
:10487000CF90BF90AF907F906F905F904F900895D2
:1048800002EF1FEF81E090E0023F2FEF120711F0DF
:1048900090E080E0892B09F4A6CFE0CF04EF1FEF72
:1048A000DDCF0EEF1FEFDACF0FEF1FEFD7CF8091E5
:1048B0005502909156028F3F980749F00BD3892BF0
:1048C00049F48FEF9FEF909356028093550290E04A
:1048D00080E0089584EF9FEF0895CF92DF92EF92EA
:1048E000FF920F931F93CF93DF9321E04115510562
:1048F00009F020E04150510921112CC0DC01FB01DD
:10490000D12CC12C21E022C03FEFC31AD30A7D0174
:104910000D911D91E701EA80FB80E016F106A8F4F5
:1049200020813181E280F380F182E082338322832F
:10493000ED90FC9011979D0122503109E901F98217
:10494000E88211961C930E9320E03296C416D50689
:10495000D8F2D2CFDF91CF911F910F91FF90EF90BE
:10496000DF90CF900895FC01680F791F90E080E000
:10497000E617F70709F408952191820F911DF8CFEA
:1049800020917106211113C047DE009791F4109217
:1049900077061092760610927506109274061092A1
:1049A00073061092720621E020937106089584EF39
:1049B0009FEF0895AF92BF92CF92DF92EF92FF9256
:1049C0000F931F93CF93DF93009709F460C0463095
:1049D000510508F45CC020917106C7EFDFEF222378
:1049E00009F449C08C01060F171FF801C080D1805F
:1049F000C114D10409F44EC096012A5F3F4F4217FB
:104A0000530708F447C07C018091760690917706A1
:104A100093838283B6016C5F7F4F5801A60EB71E49
:104A2000C801A1DFF5019183808364E070E0C801D3
:104A30001ADEEC01892BF9F481E090E009DEB60181
:104A4000C801049610DEEC01892B91F462E070E05D
:104A5000C50109DEEC01892B59F4C701DBDB80912C
:104A60007606909177060196909377068093760666
:104A700090E080E0EDDDCE01DF91CF911F910F91AD
:104A8000FF90EF90DF90CF90BF90AF900895CFEF61
:104A9000DFEFF1CFC9EFDFEFEECF6F927F928F9212
:104AA0009F92AF92BF92CF92DF92EF92FF920F93BD
:104AB0001F93CF93DF9300D01F92CDB7DEB700973F
:104AC00009F47AC04115510509F476C020917106A8
:104AD00007EF1FEF222309F44DC03A017B015C016F
:104AE00064E070E0CE01019650DE8C01892B09F064
:104AF00041C009811A810115110509F45AC0480104
:104B000086E0880E911CB701680D791D80915702CF
:104B1000909158020BDD6C01009709F450C0A70179
:104B200070E060E00E948B3089819A81AB81BC810A
:104B3000EC0CFD1CF70181939193A193B1937F013C
:104B400081E090E085DDB801C7011FDE892B31F5DA
:104B500062E070E0C701800F911F17DE8C01892B86
:104B6000E9F490E080E074DDF501D182C082F301C8
:104B700091828082C8010F900F900F900F90DF916B
:104B8000CF911F910F91FF90EF90DF90CF90BF904A
:104B9000AF909F908F907F906F90089590E080E00D
:104BA00057DDF50111821082F30111821082C601D6
:104BB00031DB09EF1FEFDECF0FEF1FEFDBCF06EF8B
:104BC0001FEFD8CF0097A1F04115510589F02115AD
:104BD000310571F0F90136966E177F0748F0DC0158
:104BE0002D933C93DA01ED93FC9390E080E00895DF
:104BF0008FEF9FEF0895AF92BF92CF92DF92EF9227
:104C0000FF920F931F93CF93DF93009709F45FC038
:104C10004115510509F45BC06530710508F457C0B2
:104C200020917106C7EFDFEF222391F1DC01CD90D7
:104C3000DC9011971296ED91FC9196012A5F3F4FFF
:104C4000C9EFDFEF2617370719F5C0917206D0912B
:104C50007306209749F521E030E0309373062093E6
:104C600072067A018C01F0937506E0937406560182
:104C7000B4E0AB0EB11CB50176DE0A0D1B1DF801C8
:104C8000208131818217930729F5D701CD92DC92DB
:104C9000CE01DF91CF911F910F91FF90EF90DF90A8
:104CA000CF90BF90AF900895209174063091750613
:104CB0002F5F3F4FCCEFDFEFE217F30790F2CBEF20
:104CC000DFEF2E173F0768F2D0E0C0E0CACFCFEF8A
:104CD000DFEFDECFC3EFDFEFDBCF84E090E00895BE
:104CE00082E090E008958CEF9FEF089580E290E0DD
:104CF000089510927706109276061092750610921B
:104D00007406109273061092720690E080E0089587
:104D100090935802809357020895809171068823DA
:104D200091F0C5DD009789F410927706109276060F
:104D30001092750610927406109273061092720605
:104D400010927106089590E080E00895009749F070
:104D50006115710531F0FC0111821082FB01118295
:104D600010820895F3CF26E030E040E855E260E09D
:104D700070E090E080E000C0109279061092780612
:104D80008930910508F03AC0FC018827E553F94DB8
:104D90008F4F0C946130D426DD26E626EF26F826C8
:104DA000FF26022705270B2781E090E090937906E4
:104DB0008093780687E896E081C682E090E0909341
:104DC00079068093780684E297E0F6CF84E090E05D
:104DD000909379068093780681EC97E0EDCF88E098
:104DE00090E090937906809378068EE598E0E4CF82
:104DF00080E190E09093790680937806089580E2B0
:104E000090E0F8CF80E490E0F5CF80E890E09093D8
:104E10007906809378068091780690917906916062
:104E2000E9CF1F920F920FB60F9211240BB60F927B
:104E30002F933F934F935F936F937F938F939F93A2
:104E4000AF93BF93EF93FF938BEC93EF9093250178
:104E500080932401BAD0FF91EF91BF91AF919F91C0
:104E60008F917F916F915F914F913F912F910F9013
:104E70000BBE0F900FBE0F901F9018958BEC93EF09
:104E80009093250180932401A3E7B0E08C918E7F5D
:104E90008C93E0E2F1E080818C7F8083E1E2F1E0BD
:104EA0008081877E808380818560808380818D7F03
:104EB00080838C9181608C930895E3E7F0E080819A
:104EC00090819E7F90838170089581E00895109273
:104ED0007A06089568EE73E080E090E0EAD290E010
:104EE00080E0089526E030E040E052EC61E070E0C0
:104EF00090E080E041DF87E896E016D5892B21F02D
:104F000087E896E02BD5F7CF90E080E00895CF9228
:104F1000DF92EF92FF920F931F93CF93DF936B017A
:104F20007A01E9011982188287E896E0FDD4892B7D
:104F300069F18601CC24C39482E0D82E80917A0650
:104F4000811110C087E896E009D50297B9F7C092A1
:104F50007A06F801D1928F0188819981019699830F
:104F60008883ECCF888199818E159F0578F487E836
:104F700096E0F4D48F3F9807A9F3F80181938F014D
:104F800088819981019699838883ECCF90E080E0B5
:104F9000DF91CF911F910F91FF90EF90DF90CF9015
:104FA00008950F931F93CF93DF93EA01890187E858
:104FB00096E00E94EE2FF801D183C08390E080E05C
:104FC000DF91CF911F910F910895CF92DF92EF92D1
:104FD000FF9280917B0691E0980F90937B06882347
:104FE00069F021E030E030937D0620937C068093C9
:104FF0007B06FF90EF90DF90CF9008957894E0913A
:105000005A02F0915B02C28CD38CE48CF58C0E9426
:10501000C404B701A60190E080E00E943604F89431
:1050200080917B068150E3CF0F931F93CF93DF9343
:10503000109246091092450972D295DEC0915A022B
:10504000D0915B02198218826FEF7FEFCB010E9433
:10505000B90470E060E090E080E00E9439030097BE
:1050600009F03AC00E940A07F89478948A819B81DB
:10507000BC01685F7F4F0E943C03892B59F46FEF9E
:105080007FEFCB010E94CC030E94B304882311F070
:1050900081E08EA3F894F2DE0E94B604882311F01A
:1050A00080E008C00E94B3048111FACF81E09EA184
:1050B0009111F6CF8093450978940E94C30E8C011C
:1050C00078948091450981110CC00E94DA070E94F2
:1050D0009804F89490E080E0DF91CF911F910F91B8
:1050E00008950E9496040E94B6048823D9F081E0B6
:1050F000809346099091460981E0911180E0809368
:105100004509809146098111D8DE0130110529F445
:105110000E94C30E892B09F4DADE0E94C30E8C01B3
:10512000D4DECFCF0E94B3048111E1CF81E09EA1F4
:105130009111DECF80E0DCCF71D008F481E00895DA
:1051400004D06894B111B1C0089594D088F09F57ED
:1051500090F0B92F9927B751A0F0D1F0660F771FC3
:10516000881F991F1AF0BA95C9F712C0B13081F0A3
:105170009BD0B1E0089598C0672F782F8827B85F3B
:1051800039F0B93FCCF3869577956795B395D9F704
:105190003EF490958095709561957F4F8F4F9F4F0E
:1051A0000895E89409C097FB3EF49095809570951A
:1051B00061957F4F8F4F9F4F9923A9F0F92F96E963
:1051C000BB279395F695879577956795B795F111D8
:1051D000F8CFFAF4BB0F11F460FF1BC06F5F7F4F75
:1051E0008F4F9F4F16C0882311F096E911C0772387
:1051F00021F09EE8872F762F05C0662371F096E890
:10520000862F70E060E02AF09A95660F771F881F5E
:10521000DAF7880F9695879597F90895990F000802
:10522000550FAA0BE0E8FEEF16161706E807F90778
:10523000C0F012161306E407F50798F0621B730B13
:10524000840B950B39F40A2661F0232B242B252B94
:1052500021F408950A2609F4A140A6958FEF811D37
:10526000811D089557FD9058440F551F59F05F3F19
:1052700071F04795880F97FB991F61F09F3F79F078
:1052800087950895121613061406551FF2CF4695FA
:10529000F1DF08C0161617061806991FF1CF86957C
:1052A0007105610508940895E894BB276627772760
:1052B000CB0197F90895B2DF08F48FEF08950BD072
:1052C00078C069D028F06ED018F0952309F05AC044
:1052D0005FC01124EACFC6DFA0F3959FD1F3950FED
:1052E00050E0551F629FF001729FBB27F00DB11D6A
:1052F000639FAA27F00DB11DAA1F649F6627B00DFA
:10530000A11D661F829F2227B00DA11D621F739FE2
:10531000B00DA11D621F839FA00D611D221F749FF0
:105320003327A00D611D231F849F600D211D822F37
:10533000762F6A2F11249F5750408AF0E1F088237E
:105340004AF0EE0FFF1FBB1F661F771F881F91508B
:105350005040A9F79E3F510570F014C0A6CF5F3FA3
:10536000ECF3983EDCF3869577956795B795F795BE
:10537000E7959F5FC1F7FE2B880F911D9695879546
:1053800097F9089597F99F6780E870E060E00895C5
:105390009FEF80EC089500240A941616170618064D
:1053A0000906089500240A94121613061406050629
:1053B0000895092E0394000C11F4882352F0BB0FBA
:1053C00040F4BF2B11F460FF04C06F5F7F4F8F4F1D
:1053D0009F4F08951F920F920FB60F9211242F9393
:1053E0003F938F939F93AF93BF9380917F0690914C
:1053F0008006A0918106B091820630917E0623E05E
:10540000230F2D3758F50196A11DB11D20937E065F
:1054100080937F0690938006A0938106B0938206C6
:105420008091830690918406A0918506B0918606AE
:105430000196A11DB11D8093830690938406A093CD
:105440008506B0938606BF91AF919F918F913F9152
:105450002F910F900FBE0F901F90189526E8230FE5
:105460000296A11DB11DD2CF3FB7F894809183065B
:1054700090918406A0918506B091860626B5A89BDA
:1054800005C02F3F19F00196A11DB11D3FBFBA2FD6
:10549000A92F982F8827BC01CD01620F711D811D96
:1054A000911D42E0660F771F881F991F4A95D1F71B
:1054B00008958F929F92AF92BF92CF92DF92EF9218
:1054C000FF926B017C01D0DF4B015C01C114D10460
:1054D000E104F104D9F0AFD5C7DF681979098A0969
:1054E0009B09683E73408105910580F321E0C21A53
:1054F000D108E108F10888EE880E83E0981EA11C0F
:10550000B11CC114D104E104F10431F7FF90EF9014
:10551000DF90CF90BF90AF909F908F900895789438
:1055200084B5826084BD84B5816084BD85B58260A8
:1055300085BD85B5816085BDEEE6F0E08081816046
:105540008083E1E8F0E01082808182608083808146
:1055500081608083E0E8F0E0808181608083E1EB1E
:10556000F0E0808184608083E0EBF0E08081816006
:105570008083E1E9F0E080818260808380818160C6
:105580008083E0E9F0E0808181608083E1EAF0E0FF
:10559000808182608083808181608083E0EAF0E0A6
:1055A000808181608083E1E2F1E08081826080839C
:1055B000808181608083E0E2F1E08081816080838E
:1055C000EAE7F0E08081846080838081826080836C
:1055D0008081816080838081806880831092C10097
:1055E00008951F93CF93DF93182FEB0161E033D120
:1055F000209731F460E0812FDF91CF911F9167C137
:10560000CF3FD10511F461E0F6CFE12FF0E0EC518E
:10561000FF4FE491E150E23108F0B2C0F0E088279A
:10562000EC5EF44D8F4F4DC5262B2E2B332B3D2B8F
:10563000472BC02B512B592B612B6B2B752B7F2BA1
:105640008E2B982BC02BA22BAC2BB62B84B580684D
:1056500084BDC7BDDF91CF911F91089584B580624D
:1056600084BDC8BDF7CF80918000806880938000A2
:10567000D0938900C0938800EDCF80918000806234
:1056800080938000D0938B00C0938A00E3CF8091F9
:105690008000886080938000D0938D00C0938C0040
:1056A000D9CF8091B00080688093B000C093B300E0
:1056B000D1CF8091B00080628093B000C093B400DD
:1056C000C9CF80919000806880939000D09399001A
:1056D000C0939800BFCF809190008062809390002B
:1056E000D0939B00C0939A00B5CF809190008860C2
:1056F00080939000D0939D00C0939C00ABCF80918D
:10570000A00080688093A0008091A0008F7B809390
:10571000A000D093A900C093A8009CCF8091A000C6
:1057200080628093A000D093AB00C093AA0092CF78
:105730008091A00088608093A000D093AD00C093BA
:10574000AC0088CF80912001806880932001D093A5
:105750002901C09328017ECF80912001806280932F
:105760002001D0932B01C0932A0174CF8091200196
:10577000886080932001D0932D01C0932C016ACFC3
:10578000C038D1050CF03FCF35CF8150823108F0C1
:1057900059C0E82FF0E08827E053F44D8F4F91C4B3
:1057A000F02BF42BE22BE82BEC2B222CF72BFD2BF0
:1057B000012C072C0B2C0F2C152C192C222C1D2CFA
:1057C000232C272C809180008F7780938000089570
:1057D000809180008F7DF9CF80918000877FF5CF09
:1057E00084B58F7784BD089584B58F7DFBCF80917C
:1057F000B0008F778093B00008958091B0008F7DC6
:10580000F9CF809190008F778093900008958091D8
:1058100090008F7DF9CF80919000877FF5CF8091A8
:10582000A0008F778093A00008958091A0008F7DC5
:10583000F9CF8091A000877FF5CF809120018F77ED
:10584000809320010895809120018F7DF9CF809170
:105850002001877FF5CFCF93DF9390E0FC01E65DD9
:10586000FE4F249180599E4FFC0184918823C9F0FA
:1058700090E0880F991FFC01E053FE4FA591B49171
:10588000FC01EA54FE4FC591D49161110DC09FB740
:10589000F8948C91209582238C93888128232883E7
:1058A0009FBFDF91CF910895623051F49FB7F89474
:1058B0003C91822F809583238C93E8812E2BEFCF10
:1058C0008FB7F894EC912E2B2C938FBFEACF1F93B8
:1058D000CF93DF93282F30E0F901EC51FF4F8491F3
:1058E000F901E65DFE4FD491F901E059FE4FC491F4
:1058F000CC23A1F0162F811148DFEC2FF0E0EE0F42
:10590000FF1FEA54FE4FA591B4918FB7F894EC9124
:10591000111108C0D095DE23DC938FBFDF91CF91AA
:105920001F910895DE2BF8CFFC01918D228D892FD8
:1059300090E0805C9F4F821B91098F739927089597
:10594000FC01918D828D981731F0828DE80FF11D49
:10595000858D90E008958FEF9FEF0895FC01918D64
:10596000828D981761F0A28DAE0FBF2FB11D5D968D
:105970008C91928D9F5F9F73928F90E008958FEF2F
:105980009FEF0895FC01538D448D252F30E0842F27
:1059900090E0821B930B541710F0CF960895019757
:1059A0000895FC01A48DA80FB92FB11DA35ABF4FB4
:1059B0002C91848D90E001968F739927848FA6890E
:1059C000B7892C93A089B1898C91837080648C9362
:1059D000938D848D981306C00288F389E02D808111
:1059E0008F7D80830895CF93DF93EC01888D88238A
:1059F000B1F0AA89BB89E889F9898C9185FD03C03A
:105A0000808186FD0CC00FB607FCF7CF8C9185FF17
:105A1000F2CF808185FFEDCFCE01C3DFEACFDF91EA
:105A2000CF910895EF92FF920F931F93CF93DF933F
:105A3000EC0181E0888F9B8D8C8D98131AC0E889CA
:105A4000F989808185FF15C09FB7F894EE89FF8999
:105A50006083E889F98980818370806480839FBF37
:105A600081E090E0DF91CF911F910F91FF90EF9037
:105A70000895F62E0B8D10E00F5F1F4F0F73112747
:105A8000E02E8C8D8E110BC00FB607FCFACFE88983
:105A9000F989808185FFF5CFCE0183DFF2CFEB8DD1
:105AA000EC0FFD2FF11DE35AFF4FF0829FB7F894E2
:105AB0000B8FEA89FB8980818062D0CFCF92DF9201
:105AC000EF92FF921F93CF93DF93EC016A017B016A
:105AD000122FE889F98982E08083C11481EED8060B
